S00D00006E6F6465322E737265633F
S113000071C000008EC000008CC000008AC00000D7
S113001088C0000086C0000084C0000082C00000C8
S113002080C000007EC000007CC000007AC00000D8
S113003078C0000076C0000074C0000072C00000E8
S113004070C000006EC000006CC000006AC00000F8
S113005068C0000066C0000064C0000062C0000008
S113006060C000005EC000005CC000005AC0000018
S113007058C0000056C0000054C0000052C0000028
S113008050C000004EC000004CC000004AC0000038
S113009048C0000046C0000044C0000042C0000048
S11300A040C000003EC000003CC000003AC0000058
S11300B038C0000036C0000034C0000032C0000068
S11300C030C000002EC000002CC000002AC0000078
S11300D028C0000026C0000024C0000022C0000088
S11300E020C0000011241FBECFEFD1E2DEBFCDBF80
S11300F000E00CBF12E0A0E0B2E0E4E1F9E000E0CF
S11301000BBF02C007900D92A434B107D9F722E0C7
S1130110A4E4B2E001C01D92AA34B207E1F7B0D062
S1130120F7C36ECF28D14FEF62E08BE203D14FEFDC
S113013060E08BE2FFD040E064E080E3FBD04FEF6F
S113014064E08CE2F7D060E08FE0C8D08EE0BBD0F2
S1130150807E39F480E092E09F938F9334D10F90A6
S11301600F9008958CE2AFD0847090E008951F93AF
S1130170CF93DF93EC01F6DF892B51F1688162950F
S1130180660F607E82E3AAD068817981687F777088
S113019083E0769567958A95E1F781E39FD06A813C
S11301A085E39CD010E08A81181748F4FE01E10F22
S11301B0F11D638186E3810F91D01F5FF4CF40E08E
S11301C064E08CE2B7D080E0DF91CF911F919CC0B6
S11301D0DF91CF911F9108951F93CF93DF938CE20A
S11301E072D080FF21C081E66ED0C82F82E66BD02A
S11301F098E0C99F90011124829586958770282BD9
S1130200C0E0D0E03983288385E65DD0182F1F70C5
S11302101A83C11730F48C2F8A5955D08B832196B9
S1130220F8CF40E061E024C08CE24DD081FF22C0D1
S113023081E749D0C82F82E746D098E0C99F900152
S11302401124829586958770282BC0E0D0E03983ED
S1130250288385E738D0182F1F701A83C11730F40C
S11302608C2F8A5830D08B832196F8CF40E062E0FF
S11302708CE260D080E090E0DF91CF911F910895EF
S1130280CF93DF93CDB7DEB72B970FB6F894DEBFCD
S11302900FBECDBF47DF82E090E09A83898381E07F
S11302A08B8388E08C832FEF89E698E1215080408E
S11302B09040E1F700C000008FDF0297A1F7CE0164
S11302C0019655DFF0CFCF93C82F2F9883E071D0DC
S11302D08C2F6FD074D02F9ACF9108951F93CF9302
S11302E0DF931F92CDB7DEB7182F2F9882E0698372
S11302F060D0812F5ED06981862F5BD02F9A0F90BA
S1130300DF91CF911F9108952F98813039F020F01B
S1130310823039F484E803C081E801C082E849D01E
S113032007C081E192E09F938F934DD00F900F907F
S11303302F9A08951F93CF93DF931F921F92CDB7E7
S1130340DEB7182F2F9885E04A83698332D0812F36
S113035030D06981862F2DD04A81842F2AD02F9ABC
S11303600F900F90DF91CF911F9108952F9880ECFB
S113037020D02F9A089517D0F9DF8FEE90E00197DF
S1130380F1F700C000008EE09EDF807E803849F0E7
S11303908FE292E09F938F9316D00F900F9081E09D
S11303A0089580E0089586E884B980ED8CBD2C9A88
S11303B008958EBD0DB407FEFDCF8EB5089580E07F
S11303C0F8DF8EB50895CF93DF93CDB7DEB7FE0186
S11303D0369661917191AF018091460290914702E6
S11303E003D0DF91CF9108952F923F924F925F9265
S11303F06F927F928F929F92AF92BF92CF92DF9231
S1130400EF92FF920F931F93CF93DF93CDB7DEB795
S11304102C970FB6F894DEBF0FBECDBF7C016B01E5
S11304208A01FC0117821682838181FFB0C1CE014B
S113043001964C01F7019381F60193FD859193FF99
S113044081916F01882309F49EC1853239F493FDAB
S1130450859193FF81916F01853221F4B70190E07A
S1130460C7D1E8CF512C312C20E02032A0F48B32BC
S113047069F030F4803259F0833269F420612CC081
S11304808D3239F0803339F4216026C02260246033
S113049023C0286021C027FD27C030ED380F3A3033
S11304A078F426FF06C0FAE05F9E300D1124532E27
S11304B013C08AE0389E300D1124332E20620CC004
S11304C08E3221F426FD5FC1206406C08C3611F4FF
S11304D0206802C0883641F4F60193FD859193FFAC
S11304E081916F018111C1CF982F9F7D95549330D5
S11304F028F40C5F1F4FFFE3F9830DC0833631F0FE
S1130500833771F0833509F057C021C0F801808129
S113051089830E5F1F4F44244394512C540114C00B
S11305203801F2E06F0E711CF801A080B18026FF43
S113053003C0652D70E002C06FEF7FEFC5012C870B
S11305404CD12C0183012C852F77222E16C0380123
S1130550F2E06F0E711CF801A080B18026FF03C089
S1130560652D70E002C06FEF7FEFC5012C872AD1A3
S11305702C012C852068222E830123FC19C0832D95
S113058090E048165906A0F4B70180E290E030D11B
S11305903A94F5CFF50127FC859127FE81915F01FF
S11305A0B70190E025D131103A94F1E04F1A510887
S11305B04114510479F7DEC0843611F0893631F5DF
S11305C0F80127FF07C060817181828193810C5FEC
S11305D01F4F08C060817181882777FD8095982F0F
S11305E00E5F1F4F2F76B22E97FF09C0909580950E
S11305F0709561957F4F8F4F9F4F2068B22E2AE0F0
S113060030E0A40127D1A82EA81843C0853729F4C7
S11306102F7EB22E2AE030E025C0F22FF97FBF2EC4
S11306208F36C1F018F4883579F0ADC0803719F0F1
S1130630883721F0A8C02F2F2061B22EB4FE0DC040
S11306408B2D8460B82E09C024FF0AC09F2F9660AA
S1130650B92E06C028E030E005C020E130E002C039
S113066020E132E0F801B7FE07C060817181828128
S113067093810C5F1F4F06C06081718180E090E020
S11306800E5F1F4FA401E6D0A82EA818FB2DFF77FC
S1130690BF2EB6FE0BC02B2D2E7FA51450F4B4FE36
S11306A00AC0B2FC08C02B2D2E7E05C07A2C2B2D3F
S11306B003C07A2C01C0752C24FF0DC0FE01EA0D85
S11306C0F11D8081803311F4297E09C022FF06C008
S11306D07394739404C0822F867809F0739423FD75
S11306E012C020FF06C05A2C731418F4530C571868
S11306F0732C731460F4B70180E290E02C8778D0F7
S113070073942C85F6CF731410F4371801C0312C70
S113071024FF11C0B70180E390E02C8769D02C85B9
S113072022FF16C021FF03C088E590E002C088E7DD
S113073090E0B7010CC0822F867851F021FD02C0F1
S113074080E201C08BE227FD8DE2B70190E050D03A
S1130750A51430F4B70180E390E04AD05A94F8CF5E
S1130760AA94F401EA0DF11D8081B70190E040D014
S1130770A110F6CF332009F45DCEB70180E290E0FA
S113078037D03A94F7CFF7018681978102C08FEF73
S11307909FEF2C960FB6F894DEBF0FBECDBFDF914E
S11307A0CF911F910F91FF90EF90DF90CF90BF906A
S11307B0AF909F908F907F906F905F904F903F90FD
S11307C02F900895FC010590615070400110D8F7F6
S11307D0809590958E0F9F1F0895FC016150704085
S11307E001900110D8F7809590958E0F9F1F089562
S11307F00F931F93CF93DF93182F092FEB018B8156
S113080081FD03C08FEF9FEF20C082FF10C04E8197
S11308105F812C813D81421753077CF4E881F98183
S11308209F012F5F3F4F39832883108306C0E885DB
S1130830F985812F1995892B29F72E813F812F5F07
S11308403F4F3F832E83812F902FDF91CF911F91B4
S11308500F910895FA01AA27283051F1203181F12E
S1130860E8946F936E7F6E5F7F4F8F4F9F4FAF4FB4
S1130870B1E03ED0B4E03CD0670F781F891F9A1FC7
S1130880A11D680F791F8A1F911DA11D6A0F711D7B
S1130890811D911DA11D20D009F468943F912AE087
S11308A0269F11243019305D3193DEF6CF0108956F
S11308B0462F4770405D4193B3E00FD0C9F7F6CFA0
S11308C0462F4F70405D4A3318F0495D31FD405268
S11308D0419302D0A9F7EACFB4E0A69597958795FE
S11308E077956795BA95C9F70097610571050895DD
S11308F09B01AC010A2E0694579547953795279589
S1130900BA95C9F7620F731F841F951FA01D089520
S1070910F894FFCF85
S1130914494E204E4F524D414C204D4F44450A0DF3
S113092400427566666572206E756D626572207329
S1130934686F756C6420626520302D320A0D004E98
S11309444F5420494E20434F4E464947204D4F446F
S1070954450A0D003F
S9030000FC
