S00D00006E6F6465322E737265633F
S1130000C2C00000E0C00000DEC00000DCC0000090
S1130010DAC00000D8C00000D6C00000D4C0000080
S1130020D2C00000D0C000009CC40000CCC00000BE
S1130030CAC00000C8C00000C6C00000C4C00000A0
S1130040C2C00000C0C00000BEC00000BCC00000B0
S1130050BAC00000B8C00000B6C00000B4C00000C0
S1130060B2C00000B0C00000AEC00000ACC00000D0
S1130070AAC00000A8C00000A6C00000A4C00000E0
S1130080D5C30000A0C000009EC000009CC00000BA
S11300909AC0000098C0000096C0000078C7000015
S11300A092C0000090C000008EC000008CC0000010
S11300B08AC0000088C0000086C0000084C0000020
S11300C082C0000080C000007EC000007CC0000030
S11300D07AC0000078C0000076C0000074C0000040
S11300E072C00000E20734083408340834083408C5
S11300F034083408E207340834083408340834086F
S113010034083408E407340834083408340834085C
S113011034083408340834083408340834083408FB
S113012034083408E407340834083408340834083C
S113013034083408340834083408340834083408DB
S113014034083408300834083408340834083408CF
S1130150340834080D0834083408340834083408E2
S113016034083408340834083408340834083408AB
S113017034083408010834083408340834083408CE
S1130180340834081F0811241FBECFEFD1E2DEBFAC
S1130190CDBF00E00CBF12E0A0E0B2E0EAEDFDE16B
S11301A000E00BBF02C007900D92AA38B107D9F73F
S11301B022E0AAE8B2E001C01D92AC3BB207E1F72D
S11301C011D40C94EB0E1CCF861B970B08952F9221
S11301D03F924F925F926F927F928F929F92AF92D3
S11301E0BF92CF92DF92EF92FF920F931F93CF9320
S11301F0DF9300D000D0CDB7DEB7F82E0091940283
S11302001091950281E03FD2081B190B10939502BF
S113021000939402809194029091950264E270E0BC
S11302200E94870A709393026093920200918E0257
S113023010918F0210938B0200938A0260919202B4
S1130240709193028F2D90E0BFDF9E838D839093F6
S11302508F0280938E0280918C0290918D022D8169
S11302603E81820F931F893791053CF088E790E027
S113027090938D0280938C020FC088383FEF9307D0
S11302802CF090938D0280938C0206C088E89FEF37
S113029090938D0280938C0240901202509013022E
S11302A0609014027090150220908C0230908D02A0
S11302B080900E0290900F02A0901002B090110254
S11302C0C0900A02D0900B02E0900C02F0900D0254
S11302D08091060290910702A0910802B091090250
S11302E089839A83AB83BC838D819E810296059713
S11302F008F43EC0AD81BE81BD01882777FD80959D
S1130300982FEED7A30192010E94240A2B013C01ED
S1130310B101882777FD8095982FE2D7A501940134
S11303200E94240A9B01AC01C301B201D6D64B0141
S11303305C016D817E81601B710B882777FD809540
S1130340982FCED7A70196010E94240A29813A81C9
S11303504B815C812AD79B01AC01C501B401BDD698
S113036020E030E040E05FE3B8D687D7CB0102C09D
S113037080E090E0909391028093900226960FB6CD
S1130380F894DEBF0FBECDBFDF91CF911F910F91C7
S1130390FF90EF90DF90CF90BF90AF909F908F90A1
S11303A07F906F905F904F903F902F90089599C5E4
S11303B00895CF93DF9300D0CDB7DEB790E599834E
S11303C01A828B8363E0CE01019695D50F900F902E
S11303D00F90DF91CF91089521D44FEF62E08BE22B
S11303E000D44FEF60E08BE2FCD34FEF61E08BE28F
S11303F0F8D340E064E080E3F4D360E08CE2C5D35A
S113040060E08FE0C2D38EE0B3D3807E41F489E113
S113041092E09F938F930E94FE0A0F900F9008958D
S11304206898E8E6F0E0808182608083ECE6F0E0A2
S113043080818160808308958CE29AD3847090E0F7
S11304400895EF92FF920F931F93CF93DF93CDB74D
S1130450DEB72B970FB6F894DEBF0FBECDBFE9828F
S1130460FA820B831C832D833E834F8358876987CD
S11304707A878B87E980FA80DFDF892B61F16E2D23
S11304806295660F607E82E380D388EFE82287E07E
S1130490F822B70176956795769567957695679571
S11304A081E373D3602F85E370D3002371F07E0161
S11304B0E4E0EE0EF11C0A5C16E3F70161917F01A2
S11304C0812F63D31F5F1013F8CF40E064E08CE208
S11304D088D380E06BD32B960FB6F894DEBF0FBEA3
S11304E0CDBFDF91CF911F910F91FF90EF900895B1
S11304F09F92AF92BF92CF92DF92EF92FF920F93AF
S11305001F93CF93DF93CDB7DEB72B970FB6F89435
S1130510DEBF0FBECDBF7C018CE22AD380FF39C081
S113052081E626D3C82E82E623D3D12CCC0CDD1C45
S1130530CC0CDD1CCC0CDD1C829586958770C82AFA
S113054085E616D38F70982EA1F08E010C5F1F4F95
S11305500F2EF6E6AF2EF02DA80E0F2EF6E6BF2EC8
S1130560F02D8B2D05D3F80181938F01B394BA102C
S1130570F8CF40E061E08CE234D3DA82C9829B8216
S11305808BE0FE013196D70101900D928A95E1F737
S11305904CC08CE2EDD281FF39C081E7E9D2C82E8C
S11305A082E7E6D2D12CCC0CDD1CCC0CDD1CCC0CAF
S11305B0DD1C829586958770C82A85E7D9D28F700D
S11305C0982EA1F08E010C5F1F4F0F2EF6E7AF2E71
S11305D0F02DA80E0F2EF6E7BF2EF02D8B2DC8D2CE
S11305E0F80181938F01B394BA10F8CF40E062E030
S11305F08CE2F7D2DA82C9829B828BE0FE013196CB
S1130600D70101900D928A95E1F70FC01C8287EE05
S113061093E09A83898381E08B838BE0FE0131969A
S1130620D70101900D928A95E1F7C7012B960FB679
S1130630F894DEBF0FBECDBFDF91CF911F910F9114
S1130640FF90EF90DF90CF90BF90AF909F90089570
S1130650E2E0F1E080818F7B80838AE68A95F1F77E
S113066000C08081806480830895E1E0F1E08081AE
S11306708A67808310920701E2E0F1E08081806163
S11306808083E6CF0895CF93DF93E2E0F1E0908199
S11306909F7D90839081977F90839AE69A95F1F756
S11306A000C0D09106019081986090839AE69A9553
S11306B0F1F700C0C09106018111CADFE2E0F1E068
S11306C08081806280838D2F90E0982F88278C0F03
S11306D0911DDF91CF91089580E0F5D2DAC308959A
S11306E080E8F1D2D6C30895EAE7F0E08081876814
S11306F08083ECE7F0E08081816080830895EAE7FD
S1130700F0E080818064808380917800909179000A
S113071008950F931F93CF93DF93F1DFEC01EFDF85
S11307208C01EDDF800F911FC80FD91FCD32D1404E
S113073068F48091960290919702892B99F481E054
S113074090E090939702809396020FC08091960256
S113075090919702892B41F0109297021092960281
S113076080E003C080E001C080E0DF91CF911F9161
S11307700F910895B9DFCDCF0895EF92FF920F93B3
S11307801F93CF93DF93CDB7DEB72B970FB6F894B3
S1130790DEBF0FBECDBF812F922FE8E9F2E01083B8
S11307A021832B960FB6F894DEBF0FBECDBFDF9129
S11307B0CF911F910F91FF90EF900895EF92FF92C8
S11307C00F931F93CF93DF93CDB7DEB72B970FB65D
S11307D0F894DEBF0FBECDBF832F2B960FB6F894CF
S11307E0DEBF0FBECDBFDF91CF911F910F91FF9060
S11307F0EF900895EF92FF920F931F93CF93DF939F
S1130800CDB7DEB72B970FB6F894DEBF0FBECDBFC2
S1130810842F2B960FB6F894DEBF0FBECDBFDF91A9
S1130820CF911F910F91FF90EF9008951F920F9217
S11308300FB60F9211240BB60F92EF92FF920F9303
S11308401F932F933F934F935F936F937F938F9354
S11308509F93AF93BF93CF93DF93EF93FF938091D5
S11308609D028F5F80939D02833358F080919B0299
S113087090919C02019690939C0280939B0210920B
S11308809D0280919E0290919F02449709F050C06E
S1130890E0909E02F0909F020091A0021091A102AC
S11308A02091A2023091A3024091A4025091A5028A
S11308B06091A6027091A7028091A8027FDFC82FE1
S11308C0E0909E02F0909F020091A0021091A1027C
S11308D02091A2023091A3024091A4025091A5025A
S11308E06091A6027091A7028091A80283DF809391
S11308F01602E0909E02F0909F020091A0021091D7
S1130900A1022091A2023091A3024091A40250912D
S1130910A5026091A6027091A7028091A8022DDF22
S1130920D82F8C2F90E053DCBAD18D2FCCD16ED23E
S1130930FF91EF91DF91CF91BF91AF919F918F91F3
S11309407F916F915F914F913F912F911F910F91E3
S1130950FF90EF900F900BBE0F900FBE0F901F9063
S113096018951F920F920FB60F9211240BB60F9287
S11309702F933F934F935F936F937F938F939F93A3
S1130980AF93BF93EF93FF93CF93DF93CDB7DEB7CE
S11309902B97DEBFCDBFCE010196AADD8BE0FE0111
S11309A03196AEE9B2E001900D928A95E1F72B966B
S11309B00FB6F894DEBF0FBECDBFDF91CF91FF918C
S11309C0EF91BF91AF919F918F917F916F915F91C3
S11309D04F913F912F910F900BBE0F900FBE0F9030
S11309E01F901895CF93DF93CDB7DEB72B970FB633
S11309F0F894DEBF0FBECDBFF8945CD367D3ECDCB4
S1130A000FDDC4D12BD2D3DCB5DE20D12EDE72D1E2
S1130A10A0D1789487EE93E090939F0280939E02F6
S1130A2081E08093A0021092A10210E00F2EF3E067
S1130A302F2EF02D0F2EFFE3AF2EF2E0BF2EF02D60
S1130A400F2EFAE05F2EF02D312C6894772471F884
S1130A506894662462F80F2EFEE98F2EF2E09F2E32
S1130A60F02D442443940F2EF1E3CF2EF2E0DF2E39
S1130A70F02D123031F128F4112351F0113079F0B6
S1130A806FC0133009F434C0143009F456C068C080
S1130A9080E0E7D025DE96D1B3D1162D61C0842D38
S1130AA0E0D0A8D119DE2ED110929D0210929C02A2
S1130AB010929B02DF92CF92A1D50F900F90172D29
S1130AC04FC080911602811105C02FD1811102C03F
S1130AD014D107C080911602882319F026D1811100
S1130AE011D117DE882309F43BC0FADD122D38C07A
S1130AF080E0B7D085D180919C028F9380919B0236
S1130B008F93BF92AF927AD5E52C59823A827B8239
S1130B1010919B0220919C021C832D83F32C072DA2
S1130B203E814F81588569857A858B858ADC0F9053
S1130B300F900F900F90162D13C0F40180819181B6
S1130B40449741F480919A02811104C040929A0220
S1130B50142D06C080919A02813011F410929A02E9
S1130B608FEE90E00197F1F700C00000F5D081CF3F
S1130B70CF93C82F2F98289883E0E1D08C2FDFD013
S1130B80E4D02F9A289ACF910895CF93DF93D82F4A
S1130B90C62F2F98289882E0D2D08D2FD0D08C2FBA
S1130BA0CED02F9A289ADF91CF9108952F98289824
S1130BB0813039F018F0823039F009C081E8BFD0B3
S1130BC00DC082E8BCD00AC084E8B9D007C08EE466
S1130BD092E09F938F9312D50F900F902F9A289A9B
S1130BE008951F93CF93DF93182FD62FC42F2F98D8
S1130BF0289885E0A4D0812FA2D08D2FA0D08C2F4F
S1130C009ED02F9A289ADF91CF911F9108952F9803
S1130C10289880EC94D02F9A289A089589D0F7DFE9
S1130C208FEE90E00197F1F700C000008EE0A0DFA6
S1130C30807E803849F08CE692E09F938F93DED4D7
S1130C400F900F9081E0089580E00895E1E0F1E0D5
S1130C5080818A678083E2E0F1E080818061808323
S1130C600895882331F0E2E0F1E08081806180839F
S1130C700895E2E0F1E080818F7E808308958130E1
S1130C8031F4E2E0F1E08081826080830895811193
S1130C9005C0E2E0F1E080818D7F80830895CF93E9
S1130CA0DF93EC01853091051CF081E0E8DF06C09C
S1130CB0CC3F8FEFD80714F480E0E1DF8C2F79DB91
S1130CC0DF91CF910895682F70E080E090E006D323
S1130CD023ED3AE94DE459E3B7D32DEC3CEC4CE475
S1130CE05DE3FBD120E034E34EE157E4ADD3CAD257
S1130CF0CB010895529A5A9A08955A9881E08093A4
S1130D00A90208952FEF81EE94E021508040904095
S1130D10E1F700C000005A9A1092A9028FE39CE9FF
S1130D200197F1F700C0000008958091A902089589
S1130D3087E884B981E58CBD2F9A289A08958EBDE1
S1130D400DB407FEFDCF8EB5089580E0F8DF8EB5B3
S1130D500895539A5B9A089580911702882341F06D
S1130D608091AA0281110CC05B981092170208C0EE
S1130D708091AA02811104C05B9A81E080931702DA
S1130D808091AA028F5F8093AA020895259AE1E8D0
S1130D90F0E080818A61808380818083E0E8F0E0F4
S1130DA0808182688083808180838EE9809387003C
S1130DB084E3809386008BE0809389008DED80939B
S1130DC088000895E1E9F0E0808188608083808173
S1130DD0826080838CE9809399008FE380939800EC
S1130DE01092950010929400E1E7F0E08081826017
S1130DF080830895E1E7F0E0808182608083089534
S1130E00E1E7F0E080818D7F80830895CF92DF92C7
S1130E10EF92FF92CF93DF93EC01BC0180E090E06E
S1130E205DD26B017C0120E030E24DEF54E408D345
S1130E3088236CF020E030E24DE755E4C701B601A9
S1130E40B0D1181624F0D0938900C0938800DF91A4
S1130E50CF91FF90EF90DF90CF900895EAE0F1E01A
S1130E60808188608083E1E2F1E080818A6180830F
S1130E7080818083E0E2F1E08081826880838081E8
S1130E8080838EE98093270184E38093260128CC14
S1130E900895CF92DF92EF92FF92CF93DF93EC010C
S1130EA0BC0180E090E01AD26B017C0120E030E2CA
S1130EB04DEF54E4C5D288236CF020E030E24DE7D6
S1130EC055E4C701B6016DD1181624F0D093290159
S1130ED0C0932801DF91CF91FF90EF90DF90CF90E6
S1130EE008958CE08093B8008FEF8093BB0084E07A
S1130EF08093BC000895BF92CF92DF92EF92FF924D
S1130F000F931F93CF93DF936C01B62E7894809147
S1130F10BC0080FF15C0CAE0D0E001E812E00F2E4B
S1130F20FCEBEF2EF12CF02D1F930F9367D3F701F9
S1130F3080810F900F9080FF03C021972097A1F725
S1130F40B092AD02F60180818093AE0280FD0DC0A7
S1130F50F1E0FB1550F4D6011196EFEAF2E081E0DE
S1130F609D9191938F5F8B11FBCF1092AC0288EF10
S1130F708093180285EA8093BC00DF91CF911F9182
S1130F800F91FF90EF90DF90CF90BF9008951F9244
S1130F900F920FB60F9211240BB60F922F933F931B
S1130FA08F939F93AF93BF93EF93FF938091B90077
S1130FB090E0FC013897E135F10508F055C0EE5892
S1130FC0FF4FB8C21092AB02E091AB028091AD0228
S1130FD0E81770F481E08E0F8093AB02F0E0E255E5
S1130FE0FD4F80818093BB0085E88093BC0043C0A3
S1130FF08091AC0281608093AC0284E98093BC0050
S11310003AC0E091AB0281E08E0F8093AB028091F5
S1131010BB00F0E0E255FD4F80832091AB0230E04D
S11310208091AD0290E001972817390724F485ECEC
S11310308093BC0020C085E88093BC001CC08091D4
S1131040BB00E091AB02F0E0E255FD4F808380915C
S1131050AC0281608093AC0284E98093BC000BC035
S113106085EA8093BC0007C08091B9008093180280
S113107084E08093BC00FF91EF91BF91AF919F9169
S11310808F913F912F910F900BBE0F900FBE0F9039
S11310901F901895E0ECF0E0908195FFFDCF8093D0
S11310A0C6000895E0ECF0E080818823ECF780919D
S11310B0C60008951092C50087E68093C40088E1B5
S11310C08093C1008EE08093C200089562E578E0C9
S11310D08AE498E049C208955058BB27AA270ED045
S11310E075C166D130F06BD120F031F49F3F11F41B
S11310F01EF45BC10EF4E095E7FB51C1E92F77D1F3
S113110080F3BA17620773078407950718F071F420
S11311109EF58FC10EF4E0950B2EBA2FA02D0B0176
S1131120B90190010C01CA01A0011124FF27591B28
S113113099F0593F50F4503E68F11A16F040A22F2E
S1131140232F342F4427585FF3CF4695379527959F
S1131150A795F0405395C9F77EF41F16BA0B620B9E
S1131160730B840BBAF09150A1F0FF0FBB1F661FE5
S1131170771F881FC2F70EC0BA0F621F731F841F28
S113118048F4879577956795B795F7959E3F08F04E
S1131190B3CF9395880F08F09927EE0F979587950D
S11311A00895D9D008F481E008950CD00FC107D177
S11311B040F0FED030F021F45F3F19F0F0C051113F
S11311C039C1F3C014D198F39923C9F35523B1F36A
S11311D0951B550BBB27AA2762177307840738F0A2
S11311E09F5F5F4F220F331F441FAA1FA9F333D001
S11311F00E2E3AF0E0E830D091505040E695001CB5
S1131200CAF729D0FE2F27D0660F771F881FBB1F70
S1131210261737074807AB07B0E809F0BB0B802D4A
S1131220BF01FF2793585F4F2AF09E3F510568F096
S1131230B6C000C15F3FECF3983EDCF3869577952A
S11312406795B795F7959F5FC9F7880F911D969598
S1131250879597F90895E1E0660F771F881FBB1FF4
S1131260621773078407BA0720F0621B730B840BA1
S1131270BA0BEE1F88F7E095089504D06894B11175
S1131280D9C00895BCD088F09F5790F0B92F992702
S1131290B751A0F0D1F0660F771F881F991F1AF07D
S11312A0BA95C9F712C0B13081F0C3D0B1E0089546
S11312B0C0C0672F782F8827B85F39F0B93FCCF3C7
S11312C0869577956795B395D9F73EF49095809573
S11312D0709561957F4F8F4F9F4F0895E89409C093
S11312E097FB3EF490958095709561957F4F8F4F55
S11312F09F4F9923A9F0F92F96E9BB279395F6956B
S1131300879577956795B795F111F8CFFAF4BB0FE8
S113131011F460FF1BC06F5F7F4F8F4F9F4F16C04C
S1131320882311F096E911C0772321F09EE8872FD6
S1131330762F05C0662371F096E8862F70E060E092
S11313402AF09A95660F771F881FDAF7880F96950B
S1131350879597F90895990F0008550FAA0BE0E8AF
S1131360FEEF16161706E807F907C0F01216130663
S1131370E407F50798F0621B730B840B950B39F4A3
S11313800A2661F0232B242B252B21F408950A2609
S113139009F4A140A6958FEF811D811D089597F949
S11313A09F6780E870E060E008959FEF80EC089507
S11313B000240A9416161706180609060895002430
S11313C00A9412161306140605060895092E0394AA
S11313D0000C11F4882352F0BB0F40F4BF2B11F41E
S11313E060FF04C06F5F7F4F8F4F9F4F089557FD7D
S11313F09058440F551F59F05F3F71F04795880F7F
S113140097FB991F61F09F3F79F087950895121615
S113141013061406551FF2CF4695F1DF08C01616C1
S113142017061806991FF1CF869571056105089472
S11314300895E894BB2766277727CB0197F9089589
S11314408ADF08F48FEF08950BD0C0CFB1DF28F006
S1131450B6DF18F0952309F0A2CFA7CF1124EACF65
S1131460C6DFA0F3959FD1F3950F50E0551F629FFF
S1131470F001729FBB27F00DB11D639FAA27F00DE9
S1131480B11DAA1F649F6627B00DA11D661F829F10
S11314902227B00DA11D621F739FB00DA11D621FF5
S11314A0839FA00D611D221F749F3327A00D611D12
S11314B0231F849F600D211D822F762F6A2F1124F4
S11314C09F5750408AF0E1F088234AF0EE0FFF1F47
S11314D0BB1F661F771F881F91505040A9F79E3F7E
S11314E0510570F05CCFA6CF5F3FECF3983EDCF380
S11314F0869577956795B795F795E7959F5FC1F7BB
S1131500FE2B880F911D9695879597F9089597FB63
S1131510072E16F4009406D077FD08D011D007FCEE
S113152005D03EF4909581959F4F089570956195EF
S11315307F4F0895EE0FFF1F0590F491E02D19944D
S1131540AA1BBB1B51E107C0AA1FBB1FA617B707E5
S113155010F0A61BB70B881F991F5A95A9F7809501
S11315609095BC01CD0108950F931F93CF93DF9302
S1131570EC018B01009731F46115710519F480E0D9
S113158090E037C06EE070E081E090E036D2FC017C
S11315900097A9F380E883830115110571F013877F
S11315A0028781E883838091B2029091B302892BF0
S11315B021F4F093B302E093B2022097C9F0D187EB
S11315C0C0878381826083838091B4029091B50245
S11315D0892B71F4F093B502E093B4028091B602C2
S11315E09091B702892B21F4F093B702E093B602ED
S11315F0CF01DF91CF911F910F910895CF93DF9386
S1131600CDB7DEB7FE01369661917191AF0180913D
S1131610B4029091B50203D0DF91CF9108952F9237
S11316203F924F925F926F927F928F929F92AF926E
S1131630BF92CF92DF92EF92FF920F931F93CF93BB
S1131640DF93CDB7DEB72C970FB6F894DEBF0FBE8D
S1131650CDBF7C016B018A01FC0117821682838154
S113166081FFB0C1CE0101964C01F7019381F601CF
S113167093FD859193FF81916F01882309F49EC1A5
S1131680853239F493FD859193FF81916F01853201
S113169021F4B70190E00FD3E8CF512C312C20E096
S11316A02032A0F48B3269F030F4803259F0833266
S11316B069F420612CC08D3239F0803339F4216013
S11316C026C02260246023C0286021C027FD27C0D3
S11316D030ED380F3A3078F426FF06C0FAE05F9E0A
S11316E0300D1124532E13C08AE0389E300D11247E
S11316F0332E20620CC08E3221F426FD5FC120649B
S113170006C08C3611F4206802C0883641F4F60114
S113171093FD859193FF81916F018111C1CF982F22
S11317209F7D9554933028F40C5F1F4FFFE3F9839A
S11317300DC0833631F0833771F0833509F057C01B
S113174021C0F801808189830E5F1F4F4424439494
S1131750512C540114C03801F2E06F0E711CF801D1
S1131760A080B18026FF03C0652D70E002C06FEF3A
S11317707FEFC5012C8794D22C0183012C852F7710
S1131780222E16C03801F2E06F0E711CF801A08001
S1131790B18026FF03C0652D70E002C06FEF7FEFBC
S11317A0C5012C876BD22C012C852068222E830145
S11317B023FC19C0832D90E048165906A0F4B70104
S11317C080E290E078D23A94F5CFF50127FC859138
S11317D027FE81915F01B70190E06DD231103A94F8
S11317E0F1E04F1A51084114510479F7DEC08436F0
S11317F011F0893631F5F80127FF07C06081718146
S1131800828193810C5F1F4F08C06081718188279A
S113181077FD8095982F0E5F1F4F2F76B22E97FF7E
S113182009C090958095709561957F4F8F4F9F4F1C
S11318302068B22E2AE030E0A4016FD2A82EA818A6
S113184043C0853729F42F7EB22E2AE030E025C02C
S1131850F22FF97FBF2E8F36C1F018F4883579F056
S1131860ADC0803719F0883721F0A8C02F2F206130
S1131870B22EB4FE0DC08B2D8460B82E09C024FF97
S11318800AC09F2F9660B92E06C028E030E005C03C
S113189020E130E002C020E132E0F801B7FE07C0E9
S11318A060817181828193810C5F1F4F06C06081CA
S11318B0718180E090E00E5F1F4FA4012ED2A82E0C
S11318C0A818FB2DFF77BF2EB6FE0BC02B2D2E7F45
S11318D0A51450F4B4FE0AC0B2FC08C02B2D2E7E11
S11318E005C07A2C2B2D03C07A2C01C0752C24FF43
S11318F00DC0FE01EA0DF11D8081803311F4297EB3
S113190009C022FF06C07394739404C0822F8678A2
S113191009F0739423FD12C020FF06C05A2C7314DF
S113192018F4530C5718732C731460F4B70180E245
S113193090E02C87C0D173942C85F6CF731410F4E7
S1131940371801C0312C24FF11C0B70180E390E0A7
S11319502C87B1D12C8522FF16C021FF03C088E556
S113196090E002C088E790E0B7010CC0822F86782F
S113197051F021FD02C080E201C08BE227FD8DE21F
S1131980B70190E098D1A51430F4B70180E390E05A
S113199092D15A94F8CFAA94F401EA0DF11D8081F2
S11319A0B70190E088D1A110F6CF332009F45DCEC1
S11319B0B70180E290E07FD13A94F7CFF7018681B6
S11319C0978102C08FEF9FEF2C960FB6F894DEBF7D
S11319D00FBECDBFDF91CF911F910F91FF90EF907C
S11319E0DF90CF90BF90AF909F908F907F906F903B
S11319F05F904F903F902F9008950F931F93CF9334
S1131A00DF93869F8001879F100D969F100D1124F0
S1131A10C8010DD0EC01009721F0A80160E070E04E
S1131A2038D1CE01DF91CF911F910F910895CF93BB
S1131A30DF938230910510F482E090E0E091BA02E5
S1131A40F091BB0220E030E0A0E0B0E0309739F143
S1131A504081518148175907B8F04817590771F464
S1131A6082819381109729F013969C938E931297F9
S1131A702CC09093BB028093BA0227C02115310574
S1131A8031F04217530718F0A901DB0101C0EF013F
S1131A909A01BD01DF010280F381E02DD7CF21152A
S1131AA03105F9F0281B390B2430310580F48A8183
S1131AB09B816115710521F0FB019383828304C02E
S1131AC09093BB028093BA02FE01329644C0FE0199
S1131AD0E20FF31F819391932250310939832883B4
S1131AE03AC02091B8023091B902232B41F42091DD
S1131AF00202309103023093B9022093B80220917C
S1131B000002309101022115310541F42DB73EB791
S1131B104091040250910502241B350BE091B80258
S1131B20F091B902E217F307A0F42E1B3F0B28171C
S1131B30390778F0AC014E5F5F4F2417350748F042
S1131B404E0F5F1F5093B9024093B8028193919353
S1131B5002C0E0E0F0E0CF01DF91CF910895CF9390
S1131B60DF93009709F487C0FC0132971382128235
S1131B70C091BA02D091BB02209781F420813181B7
S1131B80280F391F8091B8029091B90282179307E8
S1131B9079F5F093B902E093B8026DC0DE0120E05C
S1131BA030E0AE17BF0750F412964D915C91139735
S1131BB09D014115510509F1DA01F3CFB383A283E5
S1131BC040815181840F951F8A179B0771F48D9171
S1131BD09C911197840F951F02969183808312968E
S1131BE08D919C911397938382832115310529F458
S1131BF0F093BB02E093BA023EC0D9011396FC9362
S1131C00EE9312974D915D91A40FB51FEA17FB0750
S1131C1079F480819181840F951F0296D9011196E0
S1131C209C938E938281938113969C938E931297A7
S1131C30E0E0F0E08A819B81009719F0FE01EC015D
S1131C40F9CFCE01029628813981820F931F20910A
S1131C50B8023091B9022817390769F4309729F48A
S1131C601092BB021092BA0202C013821282D09365
S1131C70B902C093B802DF91CF910895FC01059099
S1131C80615070400110D8F7809590958E0F9F1F7A
S1131C900895DC0101C06D9341505040E0F7089570
S1131CA0FC016150704001900110D8F78095909527
S1131CB08E0F9F1F08950F931F93CF93DF93182FB9
S1131CC0092FEB018B8181FD03C08FEF9FEF20C0B3
S1131CD082FF10C04E815F812C813D8142175307E2
S1131CE07CF4E881F9819F012F5F3F4F398328837A
S1131CF0108306C0E885F985812F1995892B29F76A
S1131D002E813F812F5F3F4F3F832E83812F902F62
S1131D10DF91CF911F910F910895FA01AA272830DE
S1131D2051F1203181F1E8946F936E7F6E5F7F4FA4
S1131D308F4F9F4FAF4FB1E03ED0B4E03CD0670F20
S1131D40781F891F9A1FA11D680F791F8A1F911D73
S1131D50A11D6A0F711D811D911DA11D20D009F4C3
S1131D6068943F912AE0269F11243019305D319305
S1131D70DEF6CF010895462F4770405D4193B3E0EE
S1131D800FD0C9F7F6CF462F4F70405D4A3318F095
S1131D90495D31FD4052419302D0A9F7EACFB4E046
S1131DA0A6959795879577956795BA95C9F70097FE
S1131DB06105710508959B01AC010A2E069457959F
S1131DC0479537952795BA95C9F7620F731F841FF6
S10D1DD0951FA01D0895F894FFCF9D
S1131DDA0000BC0220000AD7A33CCDCCCC3DCDCC1C
S1131DEA4C3ECDCC8C3FFF01F8494E204E4F524D0C
S1131DFA414C204D4F4445204E4F444520320A0D54
S1131E0A0053544152542047414D45210A0D00596B
S1131E1A4F55204C4F5345212025640A0D00427525
S1131E2A66666572206E756D6265722073686F7579
S1131E3A6C6420626520302D320A0D004E4F542006
S1131E4A494E20434F4E464947204D4F44450A0DBB
S10D1E5A0054574920425553590023
S9030000FC
