S00E000067726F7570322E73726563B7
S11300000C94B4010C94D1010C94D1010C94D10141
S11300100C94D1010C94D1010C94D1010C94D10114
S11300200C94D1010C94D1010C94D1010C94D10104
S11300300C94D1010C94D1010C94D1010C94D101F4
S11300400C94D1010C94D1010C94D1010C94D101E4
S11300500C94D1010C94D1010C94D1010C94D101D4
S11300600C94D1010C94D1010C94D1010C94D101C4
S1130070000000000000000000065F5F06000000B2
S11300800007070007070000147F7F147F7F140018
S1130090242E6B6B3A120000466630180C66620020
S11300A0307A4F5D377A48000407030000000000EF
S11300B0001C3E63410000000041633E1C00000040
S11300C0082A3E1C1C3E2A0808083E3E0808000078
S11300D000A0E0600000000008080808080800000C
S11300E000006060000000006030180C060301008E
S11300F03E7F594D7F3E000042427F7F40400000DA
S1130100627359496F660000226349497F360000D3
S1130110181C16137F7F1000276745457D390000A2
S11301203C7E4B4979300000036371190F070000CE
S1130130367F49497F360000064F49693F1E00005B
S113014000006C6C0000000000A0EC6C00000000DB
S1130150081C366341000000141414141414000025
S1130160004163361C080000020351590F060000C9
S11301703E7F415D5D1F1E007C7E13137E7C00006C
S1130180417F7F49497F36001C3E63414163220021
S1130190417F7F41637F1C00417F7F495D41630054
S11301A0417F7F491D0103001C3E6341517372006E
S11301B07F7F08087F7F000000417F7F41000000AF
S11301C0307040417F3F0100417F7F081C7763000E
S11301D0417F7F41406070007F7F060C067F7F0077
S11301E07F7F060C187F7F001C3E6341633E1C002A
S11301F0417F7F49090F06001E3F21717F5E000089
S1130200417F7F19396F460026674D597B320000C4
S113021003417F7F410300007F7F40407F7F0000D8
S11302201F3F60603F1F00007F7F3018307F7F00DA
S113023063771C081C776300074F78784F0700002A
S11302406773594D47637100007F7F41410000008F
S11302500103060C183060000041417F7F0000005C
S1130260080C0603060C0800808080808080808053
S11302700000030704000000207454543C7840003C
S1130280413F7F44447C3800387C44446C2800005F
S1130290307848493F7F4000387C54545C18000053
S11302A0487E7F490302000098BCA4A4F87C0400A3
S11302B0417F7F08047C780000447D7D400000007D
S11302C040C484FD7D000000417F7F10386C4400F1
S11302D000417F7F400000007C7C0C180C7C78007F
S11302E07C7C04047C780000387C44447C38000026
S11302F084FCF8A4243C1800183C24A4F8FC8400D2
S1130300447C78441C180000485C54547424000055
S113031000043E7F442400003C7C40403C7C400080
S11303201C3C60603C1C00003C7C6030607C3C00F9
S1130330446C3810386C44009CBCA0A0FC7C0000C9
S11303404C64745C4C64000008083E774141000032
S113035000000077770000004141773E0808000064
S1130360020301030203010011241FBECFEFD4E0F6
S1130370DEBFCDBF12E0A0E0B1E0EAE8FCE102C0DC
S113038005900D92A432B107D9F722E0A4E2B2E0BD
S113039001C01D92A433B207E1F70E942C030C9410
S11303A0430E0C9400000E94A7044FEF62E08BE21E
S11303B00E9489044FEF60E08BE20E94890440E0D0
S11303C064E080E30E9489044FEF64E08CE20E94C1
S11303D0890460E48FE00E945A048EE00E944C0479
S11303E0807E803441F486E191E09F938F930E9454
S11303F05D0B0F900F9008958CE20E944C04847062
S113040090E008951F93CF93DF93EC010E94FC01C9
S1130410892B81F168816295660F607E82E30E9478
S11304205A0468817981687F7770769567957695A7
S113043067957695679581E30E945A046A8185E3FE
S11304400E945A048A81882369F010E0FE01E10FBA
S1130450F11D638186E3810F0E945A041F5F8A8124
S11304601817A0F340E064E08CE20E94890480E065
S11304700E946C04DF91CF911F9108950F931F93F5
S1130480CF93DF938CE20E944C0480FF30C081E65E
S11304900E944C04C82F82E60E944C042C2F30E0AA
S11304A0220F331F220F331F220F331F829586958D
S11304B08770282BC0E0D0E03983288385E60E942A
S11304C04C048F708A83882361F0C3E0D0E006E691
S11304D0080F16E6812F0E944C0489931F5F1013A6
S11304E0F9CF40E061E08CE20E94890434C08CE2E0
S11304F00E944C0481FF2FC081E70E944C04C82F46
S113050082E70E944C042C2F30E0220F331F220F6D
S1130510331F220F331F829586958770282BC0E0E6
S1130520D0E03983288385E70E944C048F708A8346
S1130530882361F0C3E0D0E006E7080F16E7812FB7
S11305400E944C0489931F5F1013F9CF40E062E0CE
S11305508CE20E94890480E090E0DF91CF911F91AA
S11305600F91089584E08093001482E68A95F1F750
S113057000008091001492E69A95F1F7000095E04E
S11305809093011492E69A95F1F70000909101146A
S11305900895CF93DF930E94B202D82F692F70E0A1
S11305A080E090E00E94FC0829EC38EC48E45FE32A
S11305B00E94880920E030E048EC52E40E9464087C
S11305C00E94C908C62F6D2F70E080E090E00E9461
S11305D0FC0829EC38EC48E45FE30E94880920E039
S11305E030E048EC52E40E9464080E94C908862F57
S11305F09C2FDF91CF9108950E94C902282F492F83
S113060035E0380F3B3020F435E0390F3B30C0F093
S1130610203524F034E1390F3932A0F0213B1CF4A9
S11306209C5E993288F0403524F094E1980F993219
S113063068F0413B6CF48C5E893260F084E008958C
S113064084E0089582E0089583E0089580E00895A9
S113065084E0089581E00895CF93DF93CDB7DEB7AA
S113066069970FB6F894DEBF0FBECDBF0E94550840
S11306700E945D0889E291E09F938F930E945D0B35
S113068085B7806885BF0E94800520E12A95F1F72F
S113069000C00E940B060E94FD057F936F930F2EEE
S11306A0FAE0EF2EF2E0FF2EF02DFF92EF920E947F
S11306B05D0B86E0EAE0F1E0DE01119601900D9217
S11306C08A95E1F786E0E0E1F1E0DE01179601901A
S11306D00D928A95E1F784E391E09E878D870E94CD
S11306E0FD057F936F93FF92EF920E945D0B63E091
S11306F070E0CE0101960E94D6048C0163E070E0A4
S1130700CE0107960E94D6045C0161E070E0CE0140
S11307100D960E94D6046C010E94FD057F936F9391
S1130720FF92EF920E945D0B62E471E0C8010E94A7
S11307300E05B5010E9439056BE471E0C8010E9401
S11307400E05B6010E9439050E94FD057F936F9343
S1130750FF92EF920E945D0BC8010E94BE060E94A8
S1130760FD057F936F93FF92EF920E945D0B0E94B1
S1130770FD057F936F93FF92EF920E945D0B0E94A1
S1130780D30168E086E30E945A0486E30E944C0485
S113079081E090E0988B8F87898B85E08A8B8EE04F
S11307A00E944C041F928F930F2EF5E5EF2EF1E07B
S11307B0FF2EF02DFF92EF920E945D0B8CE20E94BF
S11307C04C041F928F93FF92EF920E945D0B0FB621
S11307D0F894DEBF0FBECDBFCE010F960E94020279
S11307E09FEFEFE7F7E09150E040F040E1F700C001
S11307F000008EE00E944C041F928F93FF92EF92B0
S11308000E945D0B8CE20E944C041F928F93FF9216
S1130810EF920E945D0B0E943E022FEF3FE747E0FC
S1130820215030404040E1F700C000000FB6F8947A
S1130830DEBF0FBECDBFFC018381853041F48AE564
S113084091E09F938F930E945D0B0F900F908EE029
S11308500E944C041F928F930F2EF5E5EF2EF1E0CA
S1130860FF2EF02DFF92EF920E945D0B8CE20E940E
S11308704C041F928F93FF92EF920E945D0B0FB670
S1130880F894DEBF0FBECDBFC8010E94ED0632E66C
S11308903A95F1F70000F8CFCF93C82FC49883E0BE
S11308A00E9443088C2F0E9443080E944808C49A5F
S11308B0CF910895CF93DF93D82FC62FC49882E0A9
S11308C00E9443088D2F0E9443088C2F0E944308E6
S11308D0C49ADF91CF910895C498813041F018F003
S11308E0823049F00CC081E80E94430810C082E8BD
S11308F00E9443080CC084E80E94430808C08DE7A6
S113090091E09F938F930E945D0B0F900F90C49A78
S113091008951F93CF93DF93182FD62FC42FC49815
S113092085E00E944308812F0E9443088D2F0E9476
S113093043088C2F0E944308C49ADF91CF911F91E2
S11309400895C49880EC0E944308C49A08950E94B4
S11309503D080E94A10482E68A95F1F700008EE02A
S11309600E944C04807E803851F08BE991E09F9383
S11309708F930E945D0B0F900F9081E0089580E0AB
S11309800895CF93DF93EC018AE090E00E94EB0995
S1130990FC01D183C08313821282158214821782D0
S11309A0168211861086DF91CF910895CF92DF923F
S11309B0EF92FF920F931F93CF93DF93EC017B0190
S11309C0888199810E94C104C82ED92E82E0E8163C
S11309D0F104CCF08E010E5F1F4FEE0CFF1CEC0EE9
S11309E0FD1ECC2DD92FF801819191918F010E9488
S11309F0C104FC01D583C4839B838A830E151F0520
S1130A0011F0EC01F0CF8C2D9D2DDF91CF911F9132
S1130A100F91FF90EF90DF90CF900895FC01009725
S1130A2099F0808191818617970731F410C08081F5
S1130A3091818617970771F00280F381E02D30973A
S1130A40B1F780E090E0089580E090E008958E2F63
S1130A509F2F08958E2F9F2F0895FC01662339F050
S1130A6080E00280F381E02D8F5F8613FACFCF01FF
S1130A7008950F931F93CF93DF938C01EB01FC0137
S1130A807783668381818F9380818F9380EB91E05C
S1130A909F938F930E945D0B1987088789818F9399
S1130AA088818F938FEC91E09F938F930E945D0BCD
S1130AB08DB79EB708960FB6F8949EBF0FBE8DBF34
S1130AC0198708870A80DB81C02D2097C9F7DF9139
S1130AD0CF911F910F910895E0910801F0910901C0
S1130AE0808380E18A95F1F700C00895E0910601C2
S1130AF0F0910701808380E18A95F1F700C00895A1
S1130B008EEA0E946C0581EA0E946C058AED0E94BF
S1130B106C0582E10E946C0588EC0E946C0588EAF1
S1130B200E946C058FE30E946C0585ED0E946C05A4
S1130B3080E80E946C0581E80E946C0580E50E94B3
S1130B406C0589ED0E946C0581E20E946C0580E2CF
S1130B500E946C0580E00E946C058BED0E946C0580
S1130B6080E30E946C058DEA0E946C0580E00E947F
S1130B706C0584EA0E946C0586EA0E946C058FEA83
S1130B800E946C0585EA0E946C052FEF8FEF9EE0B2
S1130B90215080409040E1F700C0000084EA0E94A8
S1130BA06C050895CF93C82F813858F48093290297
S1130BB081E20E946C058C2F0E946C058FE70E94D5
S1130BC06C05CF910895CF93C82F893058F4809342
S1130BD0280282E20E946C058C2F0E946C0587E03B
S1130BE00E946C05CF910895CF93C62F0E94E30510
S1130BF08C2F0E94D205CF91089520912902309123
S1130C002802632F70E0822F90E0089560E080E076
S1130C100E94F40508951F93CF93DF930E94060664
S1130C2081E20E946C0580E00E946C058FE70E94BF
S1130C306C0582E20E946C0580E00E946C0587E0EE
S1130C400E946C0518E0D0E008C08D2F0E94760544
S1130C50CF5FC038D1F7115011F0CD2FF6CFDF910F
S1130C60CF911F9108950F931F93CF93DF9328E0A3
S1130C70829FC00111248C0100591040C0E0D0E0D3
S1130C80F801859194910E94760521960F5F1F4F7C
S1130C90C830D105A9F7DF91CF911F910F91089525
S1130CA01F93CF93DF93EC018881882351F010E0E8
S1130CB00E9433061F5FFE01E10FF11D8081811147
S1130CC0F7CFDF91CF911F9108951F93CF93DF93B7
S1130CD081E20E946C0580E00E946C058FE70E940F
S1130CE06C0582E20E946C0580E00E946C0587E03E
S1130CF00E946C0518E0D0E008C08D2F0E94760594
S1130D00CF5FC038D1F7115011F0CD2FF6CFDF915E
S1130D10CF911F9108950E94D20588E10E94760523
S1130D2088E10E9476058EE70E9476058CE30E9496
S1130D30760588E10E9476050895FF920F931F932C
S1130D40CF93DF93082F162FD0E0F82E0DC06C2F11
S1130D508D2F0E94F40580E00E947605CF5FC117B5
S1130D60B0F3DF5FD83021F00117D8F7CF2DEFCFE4
S1130D70DF91CF911F910F91FF9008951F93CF930F
S1130D80DF93EC010E9406060E94650680E70E943C
S1130D90D20584EF91E00E9450060E940606209737
S1130DA0B1F011E0888199810E9450062E813F8123
S1130DB0232B19F088E70E948B0660E0812F0E94A4
S1130DC0F4050A80DB81C02D1F5F209759F70E942C
S1130DD00606DF91CF911F9108950F931F93CF9330
S1130DE0DF93EC0180912702811107C0D093260282
S1130DF0C093250281E0809327020E94FC02843084
S1130E0009F430C10E94FD05162F0E94FD05082F2C
S1130E100E94FC02813009F04FC08091240281308D
S1130E2009F44AC0E0912502F0912602228133811F
S1130E302115310509F440C0309326022093250280
S1130E40602F81E0810F0E94F4050E94FD05C62FEA
S1130E500E94FD05D82F68E780E70E949D066D2F4C
S1130E608C2F0E94F40580E70E94D20584EF91E064
S1130E700E94500681E08093240286EF91E09F93C4
S1130E808F930E945D0B0E94FD05C82FD92F0E94ED
S1130E90FD05DF93CF937F936F938DEF91E09F9345
S1130EA08F930E945D0B8DB79EB708960FB6F8948A
S1130EB09EBF0FBE8DBFDCC00E94FC0281114FC0DB
S1130EC080912402813009F44AC0E0912502F09116
S1130ED02602248135812115310509F440C030935F
S1130EE0260220932502602F8FEF810F0E94F405C4
S1130EF00E94FD05C62F0E94FD05D82F68E780E7F4
S1130F000E949D066D2F8C2F0E94F40580E70E949D
S1130F10D20584EF91E00E94500681E08093240280
S1130F208FE092E09F938F930E945D0B0E94FD05DA
S1130F30C82FD92F0E94FD05DF93CF937F936F9322
S1130F408DEF91E09F938F930E945D0BEDB7FEB7F9
S1130F5038960FB6F894FEBF0FBEEDBF89C00E944D
S1130F60FC028330A9F580912402813089F1E0915B
S1130F702502F091260220853185232B49F184E155
S1130F8092E09F938F930E945D0B0E94FD05182FA2
S1130F90092F0E94FD050F931F937F936F938DEF8D
S1130FA091E09F938F930E945D0BD0932602C09390
S1130FB02502CE010E94BE0681E0809324028DB7F3
S1130FC09EB708960FB6F8949EBF0FBE8DBF50C053
S1130FD00E94FC02823009F04BC0809124028130CF
S1130FE009F446C0E0912502F0912602268137815A
S1130FF0232BF1F1612FCE010E942D05FC01C68146
S1131000D781D0932602C093250281E080932402E5
S11310108BE192E09F938F930E945D0B89818F9364
S113102088818F930E945D0B0E94FD05182F092F64
S11310300E94FD050F931F937F936F938DEF91E0B3
S11310409F938F930E945D0B0E940606CE010E941F
S1131050BE068DB79EB70A960FB6F8949EBF0FBE14
S11310608DBF06C00E94FC02843011F41092240249
S1131070DF91CF911F910F91089580EB87BB80ED95
S11310808DB9C49A08958FB9779BFECF8FB1089517
S113109080E00E9443088FB108955D9BFECF8CB918
S11310A008955F9BFECF8CB1089510BC8FE189B980
S11310B08EE880BD88E18AB9089561E578E08DE421
S11310C098E00E94120B08955058BB27AA270ED00F
S11310D0E5C0D6D030F0DBD020F031F49F3F11F4DE
S11310E01EF4CBC00EF4E095E7FBC1C0E92FE7D0B6
S11310F080F3BA17620773078407950718F071F431
S11311009EF5FFC00EF4E0950B2EBA2FA02D0B0117
S1131110B90190010C01CA01A0011124FF27591B38
S113112099F0593F50F4503E68F11A16F040A22F3E
S1131130232F342F4427585FF3CF469537952795AF
S1131140A795F0405395C9F77EF41F16BA0B620BAE
S1131150730B840BBAF09150A1F0FF0FBB1F661FF5
S1131160771F881FC2F70EC0BA0F621F731F841F38
S113117048F4879577956795B795F7959E3F08F05E
S1131180B3CF9395880F08F09927EE0F979587951D
S1131190089504D06894B111B5C0089598D088F02A
S11311A09F5790F0B92F9927B751A0F0D1F0660F4F
S11311B0771F881F991F1AF0BA95C9F712C0B1306A
S11311C081F09FD0B1E008959CC0672F782F8827C5
S11311D0B85F39F0B93FCCF3869577956795B395A9
S11311E0D9F73EF490958095709561957F4F8F4F18
S11311F09F4F0895E89409C097FB3EF4909580951D
S1131200709561957F4F8F4F9F4F9923A9F0F92FC8
S113121096E9BB279395F695879577956795B79546
S1131220F111F8CFFAF4BB0F11F460FF1BC06F5F2C
S11312307F4F8F4F9F4F16C0882311F096E911C03E
S1131240772321F09EE8872F762F05C0662371F05F
S113125096E8862F70E060E02AF09A95660F771F73
S1131260881FDAF7880F9695879597F9089597F967
S11312709F6780E870E060E008959FEF80EC089538
S113128000240A9416161706180609060895002461
S11312900A9412161306140605060895092E0394DB
S11312A0000C11F4882352F0BB0F40F4BF2B11F44F
S11312B060FF04C06F5F7F4F8F4F9F4F089557FDAE
S11312C09058440F551F59F05F3F71F04795880FB0
S11312D097FB991F61F09F3F79F087950895121647
S11312E013061406551FF2CF4695F1DF08C01616F3
S11312F017061806991FF1CF8695710561050894A4
S11313000895E894BB2766277727CB0197F90895BA
S11313100BD0C4CFB5DF28F0BADF18F0952309F05D
S1131320A6CFABCF1124EECFCADFA0F3959FD1F3A4
S1131330950F50E0551F629FF001729FBB27F00D7F
S1131340B11D639FAA27F00DB11DAA1F649F6627D4
S1131350B00DA11D661F829F2227B00DA11D621F23
S1131360739FB00DA11D621F839FA00D611D221FDD
S1131370749F3327A00D611D231F849F600D211DC1
S1131380822F762F6A2F11249F5750408AF0E1F064
S113139088234AF0EE0FFF1FBB1F661F771F881FAD
S11313A091505040A9F79E3F510570F060CFAACFED
S11313B05F3FECF3983EDCF3869577956795B79598
S11313C0F795E7959F5FC1F7FE2B880F911D9695C2
S11313D0879597F90895CF93DF938230910510F4A0
S11313E082E090E0E0912C02F0912D0220E030E0C8
S11313F0A0E0B0E0309739F1408151814817590796
S1131400B8F04817590771F482819381109729F035
S113141013969C938E9312972CC090932D028093D5
S11314202C0227C02115310531F04217530718F05B
S1131430A901DB0101C0EF019A01BD01DF010280B6
S1131440F381E02DD7CF21153105F9F0281B390B95
S11314502430310580F48A819B816115710521F066
S1131460FB019383828304C090932D0280932C020A
S1131470FE01329644C0FE01E20FF31F8193919363
S113148022503109398328833AC020912A023091AD
S11314902B02232B41F4209102013091030130935C
S11314A02B0220932A022091000130910101211581
S11314B0310541F42DB73EB7409104015091050127
S11314C0241B350BE0912A02F0912B02E217F3075B
S11314D0A0F42E1B3F0B2817390778F0AC014E5FA0
S11314E05F4F2417350748F04E0F5F1F50932B02B0
S11314F040932A028193919302C0E0E0F0E0CF018F
S1131500DF91CF910895CF93DF93009709F487C0BB
S1131510FC01329713821282C0912C02D0912D02C9
S1131520209781F420813181280F391F80912A026C
S113153090912B028217930779F5F0932B02E09395
S11315402A026DC0DE0120E030E0AE17BF0750F480
S113155012964D915C9113979D014115510509F126
S1131560DA01F3CFB383A28340815181840F951FA5
S11315708A179B0771F48D919C911197840F951F85
S113158002969183808312968D919C9113979383F5
S113159082832115310529F4F0932D02E0932C0266
S11315A03EC0D9011396FC93EE9312974D915D9131
S11315B0A40FB51FEA17FB0779F480819181840F8A
S11315C0951F0296D90111969C938E9382819381E3
S11315D013969C938E931297E0E0F0E08A819B81AE
S11315E0009719F0FE01EC01F9CFCE010296288193
S11315F03981820F931F20912A0230912B022817E0
S1131600390769F4309729F410922D0210922C02B4
S113161002C013821282D0932B02C0932A02DF915C
S1131620CF9108950F931F93CF93DF93EC018B0118
S1131630009731F46115710519F480E090E038C029
S11316406EE070E081E090E00E94430DFC010097A1
S1131650A1F380E883830115110571F013870287D4
S113166081E8838380912E0290912F02892B21F4AB
S1131670F0932F02E0932E022097C9F0D187C08700
S11316808381826083838091300290913102892B1F
S113169071F4F0933102E093300280913202909120
S11316A03302892B21F4F0933302E0933202CF0109
S11316B0DF91CF911F910F910895A0E0B0E0E3E690
S11316C0FBE00C941C0EFE01359661917191AF0103
S11316D080913002909131020E94710BE2E00C94EF
S11316E0380EACE0B0E0E7E7FBE00C940C0E7C01B4
S11316F06B018A01FC0117821682838181FFBDC1BF
S1131700CE0101964C01F7019381F60193FD859179
S113171093FF81916F01882309F4ABC1853239F4B9
S113172093FD859193FF81916F01853229F4B7016F
S113173090E00E947C0DE7CF512C312C20E0203228
S1131740A0F48B3269F030F4803259F0833269F4BA
S113175020612CC08D3239F0803339F4216026C0E9
S11317602260246023C0286021C027FD27C030EDFB
S1131770380F3A3078F426FF06C0FAE05F9E300D49
S11317801124532E13C08AE0389E300D1124332EB9
S113179020620CC08E3221F426FD6BC1206406C089
S11317A08C3611F4206802C0883641F4F60193FDAA
S11317B0859193FF81916F018111C1CF982F9F7DF6
S11317C09554933028F40C5F1F4FFFE3F9830DC049
S11317D0833631F0833771F0833509F05BC022C062
S11317E0F801808189830E5F1F4F44244394512C58
S11317F0540115C03801F2E06F0E711CF801A0808D
S1131800B18026FF03C0652D70E002C06FEF7FEF4B
S1131810C5012C870E94710D2C0183012C852F7723
S1131820222E17C03801F2E06F0E711CF801A0805F
S1131830B18026FF03C0652D70E002C06FEF7FEF1B
S1131840C5012C870E945F0D2C012C852068222E57
S1131850830123FC1BC0832D90E048165906B0F485
S1131860B70180E290E00E947C0D3A94F4CFF50138
S113187027FC859127FE81915F01B70190E00E94CA
S11318807C0D31103A94F1E04F1A5108411451047F
S113189071F7E5C0843611F0893639F5F80127FF70
S11318A007C060817181828193810C5F1F4F08C0E2
S11318B060817181882777FD8095982F0E5F1F4F77
S11318C02F76B22E97FF09C09095809570956195FB
S11318D07F4F8F4F9F4F2068B22E2AE030E0A40143
S11318E00E94AE0DA82EA81844C0853729F42F7E77
S11318F0B22E2AE030E025C0F22FF97FBF2E8F36BA
S1131900C1F018F4883579F0B4C0803719F08837FD
S113191021F0AFC02F2F2061B22EB4FE0DC08B2D4D
S11319208460B82E09C024FF0AC09F2F9660B92E88
S113193006C028E030E005C020E130E002C020E12C
S113194032E0F801B7FE07C0608171818281938122
S11319500C5F1F4F06C06081718180E090E00E5FD4
S11319601F4FA4010E94AE0DA82EA818FB2DFF77CF
S1131970BF2EB6FE0BC02B2D2E7FA51450F4B4FE43
S11319800AC0B2FC08C02B2D2E7E05C07A2C2B2D4C
S113199003C07A2C01C0752C24FF0DC0FE01EA0D92
S11319A0F11D8081803311F4297E09C022FF06C015
S11319B07394739404C0822F867809F0739423FD82
S11319C013C020FF06C05A2C731418F4530C571874
S11319D0732C731468F4B70180E290E02C870E94A2
S11319E07C0D73942C85F5CF731410F4371801C053
S11319F0312C24FF12C0B70180E390E02C870E94B1
S1131A007C0D2C8522FF17C021FF03C088E590E0E0
S1131A1002C088E790E0B7010CC0822F867859F0A5
S1131A2021FD02C080E201C08BE227FD8DE2B701F7
S1131A3090E00E947C0DA51438F4B70180E390E097
S1131A400E947C0D5A94F7CFAA94F401EA0DF11D7B
S1131A508081B70190E00E947C0DA110F5CF332066
S1131A6009F451CEB70180E290E00E947C0D3A94D3
S1131A70F6CFF7018681978102C08FEF9FEF2C96F6
S1131A80E2E10C94280E0F931F93CF93DF93869F6C
S1131A908001879F100D969F100D1124C8010E948C
S1131AA0EB09EC01009729F0A80160E070E00E94C6
S1131AB06A0DCE01DF91CF911F910F910895FC0122
S1131AC00590615070400110D8F7809590958E0F65
S1131AD09F1F0895DC0101C06D9341505040E0F711
S1131AE00895FC016150704001900110D8F7809571
S1131AF090958E0F9F1F08950F931F93CF93DF939D
S1131B00182F092FEB018B8181FD03C08FEF9FEF0D
S1131B1020C082FF10C04E815F812C813D8142171D
S1131B2053077CF4E881F9819F012F5F3F4F39838C
S1131B302883108306C0E885F985812F0995892BB0
S1131B4029F72E813F812F5F3F4F3F832E83812FC3
S1131B50902FDF91CF911F910F910895FA01AA2739
S1131B60283051F1203181F1E8946F936E7F6E5FDC
S1131B707F4F8F4F9F4FAF4FB1E03ED0B4E03CD08A
S1131B80670F781F891F9A1FA11D680F791F8A1F6D
S1131B90911DA11D6A0F711D811D911DA11D20D0D4
S1131BA009F468943F912AE0269F11243019305D8E
S1131BB03193DEF6CF010895462F4770405D41937F
S1131BC0B3E00FD0C9F7F6CF462F4F70405D4A33CC
S1131BD018F0495D31FD4052419302D0A9F7EACF94
S1131BE0B4E0A6959795879577956795BA95C9F7C3
S1131BF000976105710508959B01AC010A2E0694B6
S1131C005795479537952795BA95C9F7620F731F6E
S1131C10841F951FA01D08952F923F924F925F92AB
S1131C206F927F928F929F92AF92BF92CF92DF92E8
S1131C30EF92FF920F931F93CF93DF93CDB7DEB74D
S1131C40CA1BDB0B0FB6F894DEBF0FBECDBF0994E1
S1131C502A88398848885F846E847D848C849B8438
S1131C60AA84B984C884DF80EE80FD800C811B8146
S1131C70AA81B981CE0FD11D0FB6F894DEBF0FBE75
S10D1C80CDBFED010895F894FFCFE5
S1131C8A000034022000001200105E014B014201E0
S1131C9A64016A017501494E204C4F4F5042414339
S1131CAA4B204D4F44450A0D00495420574F524B7F
S1131CBA530A0D00486967686573742073636F7209
S1131CCA650053657474696E67730048696768735D
S1131CDA636F72650025780D0A0059415900506CEA
S1131CEA61797900466F6E74730042726967687429
S1131CFA6E657373004F7061636974790042756627
S1131D0A666572206E756D6265722073686F756C94
S1131D1A6420626520302D320A0D004E4F5420494A
S1131D2A4E20434F4E464947204D4F44450A0D0025
S1131D3A6D656E7520696E73657274207375626D54
S1131D4A656E75206E6F64653A2025730D0A006D01
S1131D5A656E7520696E73657274207375626D653C
S1131D6A6E75206368696C643A2025730D0A002530
S1131D7A750A0D002A00444F574E0A0D00506F731E
S1131D8A6974696F6E3A2025642C25640A0D00551E
S1131D9A500A0D004C4546540A0D0052494748540E
S1071DAA0A0D00001A
S9030000FC
