S00D00006E6F6465312E7372656340
S11300000C94BB010C94D8010C94D8010C94D80125
S11300100C94D8010C94D8010C94D8010C94D801F8
S11300200C94D8010C94D8010C94D8010C94D801E8
S11300300C94D8010C94D8010C94D8010C94D801D8
S11300400C94D8010C94D8010C94D8010C94D801C8
S11300500C94D8010C94D8010C94D8010C94D801B8
S11300600C94D8010C94D8010C94D8010C94D801A8
S1130070AA05D104000527053E057E058A05000072
S113008000000000000000065F5F0600000000079B
S1130090070007070000147F7F147F7F1400242EBD
S11300A06B6B3A120000466630180C666200307AB8
S11300B04F5D377A48000407030000000000001C6D
S11300C03E63410000000041633E1C000000082A1A
S11300D03E1C1C3E2A0808083E3E0808000000A0FA
S11300E0E06000000000080808080808000000009C
S11300F06060000000006030180C060301003E7FC1
S1130100594D7F3E000042427F7F404000006273B1
S113011059496F660000226349497F360000181C64
S113012016137F7F1000276745457D3900003C7E0C
S11301304B4979300000036371190F070000367FC3
S113014049497F360000064F49693F1E0000000000
S11301506C6C0000000000A0EC6C00000000081CA7
S113016036634100000014141414141400000041F8
S113017063361C080000020351590F0600003E7F3D
S1130180415D5D1F1E007C7E13137E7C0000417F59
S11301907F49497F36001C3E634141632200417F11
S11301A07F41637F1C00417F7F495D416300417F44
S11301B07F491D0103001C3E6341517372007F7F20
S11301C008087F7F000000417F7F410000003070FD
S11301D040417F3F0100417F7F081C776300417FDE
S11301E07F41406070007F7F060C067F7F007F7F29
S11301F0060C187F7F001C3E6341633E1C00417F58
S11302007F49090F06001E3F21717F5E0000417F78
S11302107F19396F460026674D597B320000034130
S11302207F7F410300007F7F40407F7F00001F3FAE
S113023060603F1F00007F7F3018307F7F0063774E
S11302401C081C776300074F78784F07000067731A
S1130250594D47637100007F7F4141000000010355
S1130260060C183060000041417F7F000000080C3C
S11302700603060C08008080808080808080000057
S1130280030704000000207454543C784000413FAC
S11302907F44447C3800387C44446C280000307827
S11302A048493F7F4000387C54545C180000487E25
S11302B07F490302000098BCA4A4F87C0400417F99
S11302C07F08047C780000447D7D4000000040C429
S11302D084FD7D000000417F7F10386C44000041A4
S11302E07F7F400000007C7C0C180C7C78007C7CB8
S11302F004047C780000387C44447C38000084FC8E
S1130300F8A4243C1800183C24A4F8FC8400447C81
S113031078441C180000485C545474240000000401
S11303203E7F442400003C7C40403C7C40001C3C1C
S113033060603C1C00003C7C6030607C3C00446C91
S11303403810386C44009CBCA0A0FC7C00004C64B9
S1130350745C4C64000008083E77414100000000D2
S11303600077770000004141773E0808000002034F
S113037001030203010011241FBECFEFD4E0DEBF4E
S1130380CDBF12E0A0E0B1E0EEE0F0E202C00590E3
S11303900D92A431B107D9F722E0A4E1B2E001C083
S11303A01D92AB33B207E1F70E9485040C9405104B
S11303B00C9400000E9416064FEF62E08BE20E944C
S11303C0F8054FEF60E08BE20E94F80540E064E03E
S11303D080E30E94F8054FEF64E08CE20E94F80588
S11303E060E08FE00E94C9058EE00E94BB05807E1C
S11303F041F488E291E09F938F930E94FD0C0F904B
S11304000F9008958CE20E94BB05847090E00895DB
S1130410EF92FF920F931F93CF93DF93CDB7DEB785
S11304202B970FB6F894DEBF0FBECDBFE982FA82D8
S11304300B831C832D833E834F83588769877A8778
S11304408B87E980FA800E940202892B91F16E2D3C
S11304506295660F607E82E30E94C90588EFE822F8
S113046087E0F822B7017695679576956795769536
S1130470679581E30E94C905602F85E30E94C90541
S1130480002379F07E01E4E0EE0EF11C0A5C16E331
S1130490F70161917F01812F0E94C9051F5F10132D
S11304A0F7CF40E064E08CE20E94F80580E00E940F
S11304B0DB052B960FB6F894DEBF0FBECDBFDF91E0
S11304C0CF911F910F91FF90EF9008959F92AF925B
S11304D0BF92CF92DF92EF92FF920F931F93CF932D
S11304E0DF93CDB7DEB72B970FB6F894DEBF0FBE00
S11304F0CDBF7C018CE20E94BB0580FF3EC081E63B
S11305000E94BB05C82E82E60E94BB05D12CCC0CF0
S1130510DD1CCC0CDD1CCC0CDD1C82958695877013
S1130520C82A85E60E94BB058F70982EA9F08E011B
S11305300C5F1F4F0F2EF6E6AF2EF02DA80E0F2ED8
S1130540F6E6BF2EF02D8B2D0E94BB05F80181939A
S11305508F01B394BA10F7CF40E061E08CE20E94BF
S1130560F805DA82C9829B828BE0FE013196D701BD
S113057001900D928A95E1F752C08CE20E94BB056E
S113058081FF3EC081E70E94BB05C82E82E70E941E
S1130590BB05D12CCC0CDD1CCC0CDD1CCC0CDD1C27
S11305A0829586958770C82A85E70E94BB058F705F
S11305B0982EA9F08E010C5F1F4F0F2EF6E7AF2E79
S11305C0F02DA80E0F2EF6E7BF2EF02D8B2D0E94D6
S11305D0BB05F80181938F01B394BA10F7CF40E0C3
S11305E062E08CE20E94F805DA82C9829B828BE089
S11305F0FE013196D70101900D928A95E1F70FC063
S11306001C8287EE93E09A83898381E08B838BE05D
S1130610FE013196D70101900D928A95E1F7C70149
S11306202B960FB6F894DEBF0FBECDBFDF91CF91EE
S11306301F910F91FF90EF90DF90CF90BF90AF90FC
S11306409F9008950F931F93CF93DF9370910601AA
S1130650772301F1A7E0B1E010E0AD0100E014C0A0
S1130660208131818D919C9111972817390720F4AD
S113067039832883918380836F5F32966713F0CF29
S11306801F5F1296171730F47723D1F3FA01602F06
S1130690ED01E6CFDF91CF911F910F910895CF9394
S11306A0DF93EC010E94220320910601222371F1C1
S11306B08091070190910801C817D90770F4E9E007
S11306C0F1E060E005C081919191C817D90730F439
S11306D06F5F6213F8CF6FEF1AC060E08FEF820F85
S11306E06817A8F4282F30E0F901EE0FFF1FEB5F25
S11306F0FE4F40815181F901EE0FFF1FE95FFE4F6C
S11307005183408381508613EDCF01C06FEFE62FF4
S1130710F0E0EE0FFF1FE95FFE4FD183C083DF914E
S1130720CF91089587E091E0089584E080930014C8
S113073082E68A95F1F700008091001490911902E5
S1130740891B92E69A95F1F7000095E090930114C5
S113075092E69A95F1F70000909101142091180205
S1130760921B089587E08093001482E68A95F1F73E
S1130770000080910014089586E08093001482E6BE
S11307808A95F1F700008091001408950E94950362
S113079010921902109218020895CF93DF930E94C9
S11307A09503D82F692F70E080E090E00E94960AAC
S11307B029EC38EC48E45FE30E94220B20E030E0AF
S11307C048EC52E40E94FE090E94630AC62F6D2F72
S11307D070E080E090E00E94960A29EC38EC48E44E
S11307E05FE30E94220B20E030E048EC52E40E94D8
S11307F0FE090E94630A862F9C2FDF91CF910895F2
S11308000E94CD03282F492F35E0380F3B3020F4C8
S113081035E0390F3B30C0F0203524F034E1390F96
S11308203932A0F0213B1CF49C5E993288F04035AB
S113083024F094E1980F993268F0413B6CF48C5E9B
S1130840893260F084E0089584E0089582E0089598
S113085083E0089580E0089584E0089581E0089598
S1130860AF92BF92CF92DF92EF92FF920F931F93BA
S1130870CF93DF93CDB7DEB72B970FB6F894DEBFD7
S11308800FBECDBF0E949503C82ED92E0E94B2037D
S1130890B82E0E94BC03A82E809116028C110CC0A5
S11308A0809117028D1108C080911502B81204C0FE
S11308B0809114028A15C1F084E1E82E89831A829A
S11308C0F12C04E01C2D2D2D3B2D4A2D58856985D6
S11308D07A858B850E940802E6E1F2E0C082D1822B
S11308E0B0921502A09214022B960FB6F894DEBFB4
S11308F00FBECDBFDF91CF911F910F91FF90EF906D
S1130900DF90CF90BF90AF900895CF93DF93CDB792
S1130910DEB769970FB6F894DEBF0FBECDBF0E9455
S1130920EF090E94F70989E391E09F938F930E9456
S1130930FD0C85B7806885BF0E94F40620E12A95E6
S1130940F1F700C00E947F070E94C6030E94DA01EB
S11309500E94CA090F900F90FF24F39466246394B5
S11309600F2EF6E07F2EF02D0F2EFFE12F2EF2E05A
S11309703F2EF02D0F2EFCE5AF2EF1E0BF2EF02D13
S11309808E010F5F1F4F0F2EF6E6CF2EF1E0DF2E04
S1130990F02D0F2EFBE05F2EF02D6894442441F8D7
S11309A0DAC0ECE1F1E0DE011996872D01900D9299
S11309B08A95E1F7E2E2F1E0D801872D01900D92EA
S11309C08A95E1F763E070E0CE0109960E9445063E
S11309D07C0163E070E0C8010E9445064C0164E4B8
S11309E071E0C7010E947D06B4010E94A806C701F8
S11309F00E943208F0922702E0922602F42CABC047
S1130A0060E070E080912602909127020E94E50840
S1130A100E94DB06FC01808191818D54914041F458
S1130A200E94BC03811104C00F2EF3E0FF2EF02DB1
S1130A300E94DB06FC01808191818255914009F07E
S1130A408AC00E94BC03882309F47BC084C0CE0101
S1130A500F960E946602FE013F96ABE1B2E0852D3F
S1130A6001900D928A95E1F780911B0290911C02EE
S1130A700A9709F46BC00E9430046DC0F101E08054
S1130A80F12CFE2CEE24EEE1F2E08081E80EF11C64
S1130A90FF92EF92BF92AF921F930F930E94110D9A
S1130AA01F930F93DF92CF920E94FD0C0E94D907EF
S1130AB00E947A0760E283E00E946807C8010E94EE
S1130AC0C407FFEF2FEF8AE4F15020408040E1F7A4
S1130AD000C000000E947F0761E070E08091260260
S1130AE0909127020E94E508C7010E944F030FB6A8
S1130AF0F894DEBF0FBECDBFF62C2DC00E9492032A
S1130B007C010E94D9070E947A07C7010E946108EC
S1130B10F72C21C080911A028F5F80931A020E94E1
S1130B2000048330C1F40E94D9070E947F0761E06A
S1130B3070E080912602909127020E94E508F62C2D
S1130B400AC00F2EF5E0FF2EF02D05C06894FF2497
S1130B50F2F801C0F62CF2E6FA95F1F700000E94D3
S1130B60CD098F2D90E087309105A8F7FC01E85C52
S1130B70FF4F0C94850BCF93C82FC49883E00E9439
S1130B80C0098C2F0E94C0090E94C509C49ACF9144
S1130B900895CF93DF93D82FC62FC49882E00E9484
S1130BA0C0098D2F0E94C0098C2F0E94C009C49ACD
S1130BB0DF91CF910895C498813041F018F08230CC
S1130BC049F00CC081E80E94C00910C082E80E946C
S1130BD0C0090CC084E80E94C00908C084E891E000
S1130BE09F938F930E94FD0C0F900F90C49A0895C9
S1130BF01F93CF93DF93182FD62FC42FC49885E06B
S1130C000E94C009812F0E94C0098D2F0E94C00933
S1130C108C2F0E94C009C49ADF91CF911F9108952F
S1130C20C49880EC0E94C009C49A08950E94BA092D
S1130C300E94100682E68A95F1F700008EE00E9479
S1130C40BB05807E803851F082EA91E09F938F93B8
S1130C500E94FD0C0F900F9081E0089580E00895AC
S1130C60CF93DF93EC018AE090E00E948B0BFC01B0
S1130C70D183C08313821282158214821782168252
S1130C8011861086DF91CF910895CF92DF92EF9273
S1130C90FF920F931F93CF93DF93EC017B01888125
S1130CA099810E943006C82ED92E82E0E816F104FC
S1130CB0CCF08E010E5F1F4FEE0CFF1CEC0EFD1EE0
S1130CC0CC2DD92FF801819191918F010E9430068A
S1130CD0FC01D583C4839B838A830E151F0511F001
S1130CE0EC01F0CF8C2D9D2DDF91CF911F910F91B1
S1130CF0FF90EF90DF90CF900895FC01009799F05A
S1130D00808191818617970731F410C08081918189
S1130D108617970771F00280F381E02D3097B1F7C1
S1130D2080E090E0089580E090E008958E2F9F2F5A
S1130D3008958E2F9F2F0895FC01662339F080E0DB
S1130D400280F381E02D8F5F8613FACFCF010895DF
S1130D500F931F93CF93DF938C01EB01FC017783F7
S1130D60668381818F9380818F9387EB91E09F933A
S1130D708F930E94FD0C1987088789818F9388813E
S1130D808F9386ED91E09F938F930E94FD0C8DB716
S1130D909EB708960FB6F8949EBF0FBE8DBF1987F5
S1130DA008870A80DB81C02D2097C9F7DF91CF9196
S1130DB01F910F91089580912C0290912D02089516
S1130DC0E0911901F0911A01808380E18A95F1F78D
S1130DD000C00895E0911701F0911801808380E12B
S1130DE08A95F1F700C008958EEA0E94E00681EA30
S1130DF00E94E0068AED0E94E00682E10E94E0067D
S1130E0088EC0E94E00688EA0E94E0068FE30E94D4
S1130E10E00685ED0E94E00680E80E94E00681E895
S1130E200E94E00680E50E94E00689ED0E94E0064B
S1130E3081E20E94E00680E20E94E00680E00E94D7
S1130E40E0068BED0E94E00680E30E94E0068DEA56
S1130E500E94E00680E00E94E00684EA0E94E00628
S1130E6086EA0E94E0068FEA0E94E00685EA0E9474
S1130E70E0062FEF8FEF9EE0215080409040E1F795
S1130E8000C0000084EA0E94E0060895CF93C82FB2
S1130E90813858F480932F0281E20E94E0068C2F5F
S1130EA00E94E0068FE70E94E006CF910895CF9359
S1130EB0C82F893058F480932E0282E20E94E00603
S1130EC08C2F0E94E00687E00E94E006CF910895EF
S1130ED0CF93C62F0E9457078C2F0E944607CF91AD
S1130EE0089520912F0230912E02632F70E0822FFB
S1130EF090E0089560E080E00E94680708951F93E1
S1130F00CF93DF930E947A0781E20E94E00680E09B
S1130F100E94E0068FE70E94E00682E20E94E0065B
S1130F2080E00E94E00687E00E94E00618E0D0E03E
S1130F3008C08D2F0E94EA06CF5FC038D1F7115048
S1130F4011F0CD2FF6CFDF91CF911F9108950F931C
S1130F501F93CF93DF9328E0829FC00111248C015B
S1130F6002581040C0E0D0E0F801859194910E94AD
S1130F70EA0621960F5F1F4FC830D105A9F7DF910C
S1130F80CF911F910F9108951F93CF93DF93EC019D
S1130F908881882351F010E00E94A7071F5FFE019B
S1130FA0E10FF11D80818111F7CFDF91CF911F9166
S1130FB008951F93CF93DF9381E20E94E00680E0BF
S1130FC00E94E0068FE70E94E00682E20E94E006AB
S1130FD080E00E94E00687E00E94E00618E0D0E08E
S1130FE008C08D2F0E94EA06CF5FC038D1F7115098
S1130FF011F0CD2FF6CFDF91CF911F9108950E946C
S1131000460788E10E94EA0688E10E94EA068EE724
S11310100E94EA068CE30E94EA0688E10E94EA063E
S11310200895FF920F931F93CF93DF93082F162FEA
S1131030D0E0F82E0DC06C2F8D2F0E94680780E041
S11310400E94EA06CF5FC117B0F3DF5FD83021F00A
S11310500117D8F7CF2DEFCFDF91CF911F910F91CB
S1131060FF9008951F93CF93DF93EC010E947A07BA
S11310700E94D90780E70E9446078BEF91E00E9407
S1131080C4070E947A072097B1F011E08881998102
S11310900E94C4072E813F81232B19F088E70E9408
S11310A0FF0760E0812F0E9468070A80DB81C02D62
S11310B01F5F209759F70E947A07DF91CF911F9104
S11310C008957F928F929F92AF92BF92CF92DF92B8
S11310D0EF92FF920F931F93CF93DF93CDB7DEB7B9
S11310E02C970FB6F894DEBF0FBECDBF7C01712CD8
S11310F00F2EFCE5AF2EF1E0BF2EF02D8E010F5F19
S11311001F4F0F2EF9E0CF2EF2E0DF2EF02D0F2E21
S1131110FDEF8F2EF1E09F2EF02D60E0872D0E94D1
S11311206807F701219131917F012A30310578F464
S11311303F932F939F928F921F930F930E94110DB1
S11311400F900F900F900F900F900F9023C0A90154
S11311504A5051094A35510578F43F932F93DF9251
S1131160CF921F930F930E94110D0F900F900F9029
S11311700F900F900F900EC03F932F93BF92AF929A
S11311801F930F930E94110D0F900F900F900F90CB
S11311900F900F90C8010E94C4077394F8E07F1267
S11311A0BCCF2C960FB6F894DEBF0FBECDBFDF9137
S11311B0CF911F910F91FF90EF90DF90CF90BF9050
S11311C0AF909F908F907F9008950F931F93CF932C
S11311D0DF93EC01672B21F480912B02811107C06E
S11311E0D0932A02C093290281E080932B020E94AB
S11311F00004843009F4ABC00E947107162F0E94CA
S11312007107082F0E940004813079F5809128022B
S1131210813059F1E0912902F0912A02228133812F
S11312202115310511F130932A0220932902602FF0
S113123081E0810F0E9468070E947107C62F0E94F7
S11312407107D82F68E780E70E9411086D2F8C2F53
S11312500E94680780E70E9446078BEF91E00E9496
S1131260C40781E08093280278C00E9400048111A1
S11312702FC080912802813059F1E0912902F09128
S11312802A02248135812115310511F130932A0276
S113129020932902602F8FEF810F0E9468070E941C
S11312A07107C62F0E947107D82F68E780E70E9454
S11312B011086D2F8C2F0E94680780E70E94460753
S11312C08BEF91E00E94C40781E08093280245C01F
S11312D00E9400048330B9F480912802813099F08F
S11312E0E0912902F0912A0220853185232B59F0BF
S11312F0D0932A02C0932902CE010E94320881E0D1
S1131300809328022AC00E940004823031F5809123
S11313102802813011F1E0912902F0912A022681FC
S11313203781232BD1F0612FCE010E949C06FC0152
S1131330C681D781D0932A02C093290281E0809389
S113134028020E947A07CE010E94320806C00E9439
S11313500004843011F410922802809129029091A3
S11313602A0290932D0280932C02DF91CF911F913A
S11313700F91089580EB87BB80ED8DB9C49A0895D1
S11313808FB9779BFECF8FB1089580E00E94C0098A
S11313908FB10895B89AC09A089580911B0188234B
S11313A041F0809130028F7761F4C09810921B0154
S11313B008C0809130028F7721F4C09A81E0809335
S11313C01B01809130028F5F8093300208955D9BF2
S11313D0FECF8CB908955F9BFECF8CB1089510BCED
S11313E08FE189B98EE880BD88E18AB908956BEEF2
S11313F079E087EE99E00E94B20C08955058BB271B
S1131400AA270ED0E5C0D6D030F0DBD020F031F4DE
S11314109F3F11F41EF4CBC00EF4E095E7FBC1C06E
S1131420E92FE7D080F3BA1762077307840795079B
S113143018F071F49EF5FFC00EF4E0950B2EBA2F50
S1131440A02D0B01B90190010C01CA01A0011124C6
S1131450FF27591B99F0593F50F4503E68F11A1672
S1131460F040A22F232F342F4427585FF3CF469503
S113147037952795A795F0405395C9F77EF41F1625
S1131480BA0B620B730B840BBAF09150A1F0FF0FEF
S1131490BB1F661F771F881FC2F70EC0BA0F621FDB
S11314A0731F841F48F4879577956795B795F795CB
S11314B09E3F08F0B3CF9395880F08F09927EE0F5D
S11314C097958795089504D06894B111B5C008958F
S11314D098D088F09F5790F0B92F9927B751A0F072
S11314E0D1F0660F771F881F991F1AF0BA95C9F7B4
S11314F012C0B13081F09FD0B1E008959CC0672F35
S1131500782F8827B85F39F0B93FCCF38695779563
S11315106795B395D9F73EF490958095709561954C
S11315207F4F8F4F9F4F0895E89409C097FB3EF477
S113153090958095709561957F4F8F4F9F4F99231C
S1131540A9F0F92F96E9BB279395F695879577959A
S11315506795B795F111F8CFFAF4BB0F11F460FF5A
S11315601BC06F5F7F4F8F4F9F4F16C0882311F0B2
S113157096E911C0772321F09EE8872F762F05C0C6
S1131580662371F096E8862F70E060E02AF09A9561
S1131590660F771F881FDAF7880F9695879597F956
S11315A0089597F99F6780E870E060E008959FEFE1
S11315B080EC089500240A941616170618060906E6
S11315C0089500240A9412161306140605060895B5
S11315D0092E0394000C11F4882352F0BB0F40F43D
S11315E0BF2B11F460FF04C06F5F7F4F8F4F9F4F7D
S11315F0089557FD9058440F551F59F05F3F71F0FF
S11316004795880F97FB991F61F09F3F79F0879565
S11316100895121613061406551FF2CF4695F1DFEE
S113162008C0161617061806991FF1CF869571057E
S1131630610508940895E894BB2766277727CB01B2
S113164097F908950BD0C4CFB5DF28F0BADF18F0AE
S1131650952309F0A6CFABCF1124EECFCADFA0F3B8
S1131660959FD1F3950F50E0551F629FF001729F33
S1131670BB27F00DB11D639FAA27F00DB11DAA1F52
S1131680649F6627B00DA11D661F829F2227B00D9F
S1131690A11D621F739FB00DA11D621F839FA00D2A
S11316A0611D221F749F3327A00D611D231F849F7A
S11316B0600D211D822F762F6A2F11249F575040D1
S11316C08AF0E1F088234AF0EE0FFF1FBB1F661F6C
S11316D0771F881F91505040A9F79E3F510570F025
S11316E060CFAACF5F3FECF3983EDCF38695779505
S11316F06795B795F795E7959F5FC1F7FE2B880F20
S1131700911D9695879597F90895EE0FFF1F059003
S1131710F491E02D0994CF93DF938230910510F476
S113172082E090E0E0913302F091340220E030E076
S1131730A0E0B0E0309739F1408151814817590752
S1131740B8F04817590771F482819381109729F0F2
S113175013969C938E9312972CC09093340280938B
S1131760330227C02115310531F04217530718F011
S1131770A901DB0101C0EF019A01BD01DF01028073
S1131780F381E02DD7CF21153105F9F0281B390B52
S11317902430310580F48A819B816115710521F023
S11317A0FB019383828304C09093340280933302B9
S11317B0FE01329644C0FE01E20FF31F8193919320
S11317C022503109398328833AC020913102309163
S11317D03202232B41F42091020130910301309312
S11317E03202209331022091000130910101211530
S11317F0310541F42DB73EB74091040150910501E4
S1131800241B350BE0913102F0913202E217F30709
S1131810A0F42E1B3F0B2817390778F0AC014E5F5C
S11318205F4F2417350748F04E0F5F1F5093320265
S1131830409331028193919302C0E0E0F0E0CF0144
S1131840DF91CF910895CF93DF93009709F487C078
S1131850FC01329713821282C0913302D091340278
S1131860209781F420813181280F391F8091310222
S1131870909132028217930779F5F0933202E09344
S113188031026DC0DE0120E030E0AE17BF0750F436
S113189012964D915C9113979D014115510509F1E3
S11318A0DA01F3CFB383A28340815181840F951F62
S11318B08A179B0771F48D919C911197840F951F42
S11318C002969183808312968D919C9113979383B2
S11318D082832115310529F4F0933402E093330215
S11318E03EC0D9011396FC93EE9312974D915D91EE
S11318F0A40FB51FEA17FB0779F480819181840F47
S1131900951F0296D90111969C938E93828193819F
S113191013969C938E931297E0E0F0E08A819B816A
S1131920009719F0FE01EC01F9CFCE01029628814F
S11319303981820F931F209131023091320228178E
S1131940390769F4309729F4109234021092330263
S113195002C013821282D0933202C0933102DF910B
S1131960CF9108950F931F93CF93DF93EC018B01D5
S1131970009731F46115710519F480E090E038C0E6
S11319806EE070E081E090E00E94050FFC0100979A
S1131990A1F380E883830115110571F01387028791
S11319A081E883838091350290913602892B21F45A
S11319B0F0933602E09335022097C9F0D187C087AF
S11319C08381826083838091370290913802892BCE
S11319D071F4F0933802E0933702809139029091C8
S11319E03A02892B21F4F0933A02E0933902CF01B1
S11319F0DF91CF911F910F910895A0E0B0E0E3E053
S1131A00FDE00C94DE0FFE01359661917191AF01FA
S1131A1080913702909138020E94330DE2E00C94D9
S1131A20FA0FAEE0B0E0E7E1FDE00C94DC0F0D89C5
S1131A301E8986E08C831A8309838FEF9FE79E8338
S1131A408D83AE01475E5F4F6F89788DCE0101961D
S1131A500E94330DEF81F885E00FF11F10822E965E
S1131A60E4E00C94F80FACE0B0E0E9E3FDE00C94A2
S1131A70CE0F7C016B018A01FC01178216828381DF
S1131A8081FFBDC1CE0101964C01F7019381F6019E
S1131A9093FD859193FF81916F01882309F4ABC174
S1131AA0853239F493FD859193FF81916F018532DD
S1131AB029F4B70190E00E943E0FE7CF512C312C5E
S1131AC020E02032A0F48B3269F030F4803259F0F7
S1131AD0833269F420612CC08D3239F0803339F4BB
S1131AE0216026C02260246023C0286021C027FD15
S1131AF027C030ED380F3A3078F426FF06C0FAE0FC
S1131B005F9E300D1124532E13C08AE0389E300D91
S1131B101124332E20620CC08E3221F426FD6BC1B9
S1131B20206406C08C3611F4206802C0883641F463
S1131B30F60193FD859193FF81916F018111C1CFCE
S1131B40982F9F7D9554933028F40C5F1F4FFFE32B
S1131B50F9830DC0833631F0833771F0833509F092
S1131B605BC022C0F801808189830E5F1F4F44242B
S1131B704394512C540115C03801F2E06F0E711CCE
S1131B80F801A080B18026FF03C0652D70E002C07B
S1131B906FEF7FEFC5012C870E94330F2C01830167
S1131BA02C852F77222E17C03801F2E06F0E711C9E
S1131BB0F801A080B18026FF03C0652D70E002C04B
S1131BC06FEF7FEFC5012C870E94210F2C012C851C
S1131BD02068222E830123FC1BC0832D90E048162D
S1131BE05906B0F4B70180E290E00E943E0F3A94A7
S1131BF0F4CFF50127FC859127FE81915F01B701A0
S1131C0090E00E943E0F31103A94F1E04F1A5108CF
S1131C104114510471F7E5C0843611F0893639F561
S1131C20F80127FF07C060817181828193810C5F75
S1131C301F4F08C060817181882777FD8095982F98
S1131C400E5F1F4F2F76B22E97FF09C09095809597
S1131C50709561957F4F8F4F9F4F2068B22E2AE079
S1131C6030E0A4010E94700FA82EA81844C0853744
S1131C7029F42F7EB22E2AE030E025C0F22FF97F1E
S1131C80BF2E8F36C1F018F4883579F0B4C0803790
S1131C9019F0883721F0AFC02F2F2061B22EB4FE87
S1131CA00DC08B2D8460B82E09C024FF0AC09F2F5D
S1131CB09660B92E06C028E030E005C020E130E08F
S1131CC002C020E132E0F801B7FE07C060817181F3
S1131CD0828193810C5F1F4F06C06081718180E017
S1131CE090E00E5F1F4FA4010E94700FA82EA81849
S1131CF0FB2DFF77BF2EB6FE0BC02B2D2E7FA51418
S1131D0050F4B4FE0AC0B2FC08C02B2D2E7E05C0D0
S1131D107A2C2B2D03C07A2C01C0752C24FF0DC006
S1131D20FE01EA0DF11D8081803311F4297E09C082
S1131D3022FF06C07394739404C0822F867809F03E
S1131D40739423FD13C020FF06C05A2C731418F497
S1131D50530C5718732C731468F4B70180E290E0A5
S1131D602C870E943E0F73942C85F5CF731410F4C6
S1131D70371801C0312C24FF12C0B70180E390E072
S1131D802C870E943E0F2C8522FF17C021FF03C021
S1131D9088E590E002C088E790E0B7010CC0822F8C
S1131DA0867859F021FD02C080E201C08BE227FD54
S1131DB08DE2B70190E00E943E0FA51438F4B701FC
S1131DC080E390E00E943E0F5A94F7CFAA94F40166
S1131DD0EA0DF11D8081B70190E00E943E0FA11031
S1131DE0F5CF332009F451CEB70180E290E00E9490
S1131DF03E0F3A94F6CFF7018681978102C08FEFA8
S1131E009FEF2C96E2E10C94EA0F0F931F93CF936C
S1131E10DF93869F8001879F100D969F100D1124DC
S1131E20C8010E948B0BEC01009729F0A80160E027
S1131E3070E00E942C0FCE01DF91CF911F910F9182
S1131E400895FC010590615070400110D8F7809509
S1131E5090958E0F9F1F0895DC0101C06D93415032
S1131E605040E0F70895FC0161507040019001106A
S1131E70D8F7809590958E0F9F1F08950F931F9309
S1131E80CF93DF93182F092FEB018B8181FD03C0C2
S1131E908FEF9FEF20C082FF10C04E815F812C81A5
S1131EA03D81421753077CF4E881F9819F012F5F3C
S1131EB03F4F39832883108306C0E885F985812F35
S1131EC00995892B29F72E813F812F5F3F4F3F834F
S1131ED02E83812F902FDF91CF911F910F91089521
S1131EE0FA01AA27283051F1203181F1E8946F9347
S1131EF06E7F6E5F7F4F8F4F9F4FAF4FB1E03ED0ED
S1131F00B4E03CD0670F781F891F9A1FA11D680F8A
S1131F10791F8A1F911DA11D6A0F711D811D911DBD
S1131F20A11D20D009F468943F912AE0269F112432
S1131F303019305D3193DEF6CF010895462F477096
S1131F40405D4193B3E00FD0C9F7F6CF462F4F70F1
S1131F50405D4A3318F0495D31FD4052419302D04F
S1131F60A9F7EACFB4E0A6959795879577956795F5
S1131F70BA95C9F700976105710508959B01AC01F5
S1131F800A2E06945795479537952795BA95C9F71C
S1131F90620F731F841F951FA01D08952F923F92F7
S1131FA04F925F926F927F928F929F92AF92BF9265
S1131FB0CF92DF92EF92FF920F931F93CF93DF9311
S1131FC0CDB7DEB7CA1BDB0B0FB6F894DEBF0FBE6E
S1131FD0CDBF09942A88398848885F846E847D84BB
S1131FE08C849B84AA84B984C884DF80EE80FD80BD
S1131FF00C811B81AA81B981CE0FD11D0FB6F89433
S1112000DEBF0FBECDBFED010895F894FFCFF3
S113200E00003B0220000806000400030003000742
S113201E0005000900020000120010014D015201DA
S113202E44016B0171017C01494E204E4F524D41CA
S113203E4C204D4F44450A0D00495420574F524BE6
S113204E530A0D0053657474696E677300506C61A6
S113205E79004869676873636F72650053636F72C2
S113206E653A2025750025730A0D00466F6E74734C
S113207E004272696768746E657373004F706163B2
S113208E69747900427566666572206E756D626557
S113209E722073686F756C6420626520302D320A6D
S11320AE0D004E4F5420494E20434F4E4649472073
S11320BE4D4F44450A0D006D656E7520696E73654E
S11320CE7274207375626D656E75206E6F64653AF9
S11320DE2025730D0A006D656E7520696E73657229
S11320EE74207375626D656E75206368696C643AED
S11320FE2025730D0A0025750A0D002A0053636FFF
S113210E72653A20202025750053636F72653A205C
S107211E20257500FF
S9030000FC
